:100000000C9472000C9493000C9493000C94930045
:100010000C9493000C9493000C9493000C94930014
:100020000C9493000C9493000C9493000C94930004
:100030000C9493000C9493000C9493000C949300F4
:100040000C9493000C9493000C9493000C949300E4
:100050000C9493000C9493000C9493000C949300D4
:100060000C9493000C9493000C9493000C949300C4
:100070000C9493000C9493000C9493000C949300B4
:100080000C9493000C9493000C9493000C949300A4
:100090000C9493000C9493000C9493000C94930094
:1000A0000C9493000C9493000C9493000C94930084
:1000B0000C9493000C9493000C9493000C94930074
:1000C0000C9493000C9493000C9493000C94930064
:1000D0000C9493000C9493000C9493000C94930054
:1000E0000C94930011241FBECFEFD1E2DEBFCDBF31
:1000F00000E00CBF12E0A0E0B2E0E2E1F7E000E0D7
:100100000BBF02C007900D92A030B107D9F712E0E3
:10011000A0E0B2E001C01D92A431B107E1F70E9456
:10012000B8020C9487030C94000086E69EE0FC0164
:100130003197F1F74098419840E348B9429A20E05E
:1001400038E4F9013197F1F74298FC013197F1F762
:100150004098419848B9429AF9013197F1F742988D
:10016000FC013197F1F74098419848B9429AF9015A
:100170003197F1F742980197F1F74098419880E262
:1001800088B9429AC9010197F1F74298089598B148
:100190009F7098B928B1982F907F922B98B940986A
:1001A0004198429A20E038E4F9013197F1F74298FA
:1001B00098B19F7098B998B18295807F982B98B923
:1001C00040984198429AC9010197F1F742980895E1
:1001D00086E69EE00197F1F788E20E94C70081E081
:1001E0000E94C70086E00E94C7008EE00E94C70000
:1001F00080E80E94C700089598B19F7098B928B10F
:10020000982F907F922B98B9409A4198429A20E07B
:1002100038E4F9013197F1F7429898B19F7098B995
:1002200098B18295807F982B98B9409A4198429ACC
:10023000C9010197F1F74298089580E80E94C7002C
:100240000895CF93DF93EC0103C00E94FC00219638
:1002500088818823D1F7DF91CF910895823069F0AA
:10026000833018F48130A9F405C0833049F084301C
:1002700081F40BC0862F815805C0862F815402C09F
:10028000862F8D560E94C7000895862F8D520E949A
:10029000C70008950F931F93CF93DF938A01E9015D
:1002A000882311F0662319F40E941D0102C00E94E8
:1002B0002E01C530D10571F4C80160E177E20E94DA
:1002C0007303CB01C09690930402809303020E94B3
:1002D000FC0005C0C430D10511F080E016C0C80193
:1002E00068EE73E00E947303CB0160930502909364
:1002F00006026AE070E00E947303C09690931102B8
:10030000809310020E94FC0081E0C330D10521F0EF
:10031000813011F080E016C0C80164E670E00E94F0
:100320007303CB0160930502909306026AE070E0CC
:100330000E947303C09690930D0280930C020E945A
:10034000FC0081E0C230D10521F0813011F080E065
:1003500016C0C8016AE070E00E947303CB0160938D
:100360000502909306026AE070E00E947303C09653
:1003700090930B0280930A020E94FC0081E0C1303E
:10038000D10511F0813061F4C8016AE070E00E948B
:100390007303C09690930F0280930E020E94FC009C
:1003A00026971CF085E40E94FC00DF91CF911F91FD
:1003B0000F91089581B18F6081B9EAE0F1E0808109
:1003C0008861808382B1807F82B9EBE0F1E0808137
:1003D000886180830895A1E2B1E01C922FEF209301
:1003E000250181E0809324011092290120932801A6
:1003F00010922B0120932A01ECE2F1E08FEF90E0C4
:100400009183808310922D01208389EA80932001BB
:100410008BE08C9308958093280160932A010895BE
:1004200092B1907F8F70892B82B9089582B1807FBD
:10043000866082B9089582B1807F896082B908950B
:1004400082B1807F82B9089587B1876F87B988B1FB
:10045000807888B9089510BA11BA109207011092E5
:1004600008010895EAE7F0E0108210927B001092F4
:100470007C0086E8808380E880BF0895F89481B18D
:100480008F6081B9EAE0F1E080818861808382B188
:10049000807F82B9EBE0F1E0808188618083A1E216
:1004A000B1E01C922FEF2093250181E0809324017D
:1004B000109229012093280110922B0120932A01E8
:1004C000ECE2F1E08FEF90E09183808310922D01B8
:1004D000208389EA809320018BE08C9387B1876F1A
:1004E00087B988B1807888B910BA11BA109207011B
:1004F00010920801EAE7F0E0108210927B0010925F
:100500007C0086E8808380E880BF78940895982FE7
:10051000883018F088E080937B0097709062909309
:100520007C0080917A00806480937A0080917A00C8
:1005300084FFFCCF8091790090917A009061909334
:100540007A0010927B0008950F931F93182F062FA7
:10055000842F0E948702482F80930702812F602FEB
:1005600050E023E030E00E944A011F910F9108956E
:100570000F931F930E943E020E9495000E94E80084
:100580008FEF8093280180932A0182E061E04FEF92
:1005900050E023E030E00E944A0182E065E04FEF46
:1005A00050E023E030E00E944A0182B1807F866003
:1005B00082B91FEF06E983E00E9487028093000260
:1005C00084E00E9487028093010285E00E948702F6
:1005D0008093020281E061E041E00E94A40281E098
:1005E00065E042E00E94A40281E069E043E00E94ED
:1005F000A40280910102823310F020E015C0109314
:10060000280110932A0182E061E04FEF50E023E0DF
:1006100030E00E944A0182E065E04FEF50E023E0C5
:1006200030E00E944A0121E0809100028333B8F05B
:100630002223A1F41093280100932A0182E061E0B3
:100640004FEF50E023E030E00E944A0182E065E095
:1006500046E950E023E030E00E944A0121E0809129
:1006600002028333B8F02223A1F4009328011093EF
:100670002A0182E061E046E950E023E030E00E9498
:100680004A0182E065E04FEF50E023E030E00E9455
:100690004A0121E080910102833308F48CCF8091DC
:1006A000000290E0853691050CF485CF809102021E
:1006B000833308F480CF222309F07DCF10922801E4
:1006C00010922A0182E061E040E050E023E030E057
:1006D0000E944A0182E065E040E050E023E030E023
:1006E0000E944A0168CFAA1BBB1B51E107C0AA1F89
:1006F000BB1FA617B70710F0A61BB70B881F991FC3
:100700005A95A9F780959095BC01CD010895F8946C
:02071000FFCF19
:00000001FF
