:100000000C9472000C9493000C9493000C94930045
:100010000C9493000C9444020C941F020C949300D3
:100020000C9493000C9493000C9493000C94930004
:100030000C9493000C9493000C9493000C949300F4
:100040000C9493000C9493000C9493000C949300E4
:100050000C9493000C9493000C9493000C949300D4
:100060000C9493000C9493000C9493000C949300C4
:100070000C9493000C9493000C9493000C949300B4
:100080000C9493000C9493000C9493000C949300A4
:100090000C9493000C9493000C9493000C94930094
:1000A0000C9493000C9493000C9493000C94930084
:1000B0000C9493000C9493000C9493000C94930074
:1000C0000C9493000C9493000C9493000C94930064
:1000D0000C9493000C9493000C9493000C94930054
:1000E0000C94930011241FBECFEFD1E2DEBFCDBF31
:1000F00000E00CBF13E0A0E0B2E0EAECF3E100E0C6
:100100000BBF02C007900D92A830B107D9F713E0DA
:10011000A8E0B3E001C01D92A032B107E1F70E9450
:10012000A9030C94E3090C94000086E69EE0FC0110
:100130003197F1F74098419840E348B9429A20E05E
:1001400038E4F9013197F1F74298FC013197F1F762
:100150004098419848B9429AF9013197F1F742988D
:10016000FC013197F1F74098419848B9429AF9015A
:100170003197F1F742980197F1F74098419880E262
:1001800088B9429AC9010197F1F74298089598B148
:100190009F7098B928B1982F907F922B98B940986A
:1001A0004198429A20E038E4F9013197F1F74298FA
:1001B00098B19F7098B998B18295807F982B98B923
:1001C00040984198429AC9010197F1F742980895E1
:1001D00086E69EE00197F1F788E20E94C70081E081
:1001E0000E94C70086E00E94C7008EE00E94C70000
:1001F00080E80E94C700089598B19F7098B928B10F
:10020000982F907F922B98B9409A4198429A20E07B
:1002100038E4F9013197F1F7429898B19F7098B995
:1002200098B18295807F982B98B9409A4198429ACC
:10023000C9010197F1F74298089580E80E94C7002C
:100240000895CF93DF93EC0103C00E94FC00219638
:1002500088818823D1F7DF91CF910895823069F0AA
:10026000833018F48130A9F405C0833049F084301C
:1002700081F40BC0862F815805C0862F815402C09F
:10028000862F8D560E94C7000895862F8D520E949A
:10029000C70008950F931F93CF93DF938A01E9015D
:1002A000882311F0662319F40E941D0102C00E94E8
:1002B0002E01C530D10571F4C80160E177E20E94DA
:1002C0009809CB01C09690931303809312030E9468
:1002D000FC0005C0C430D10511F080E016C0C80193
:1002E00068EE73E00E949809CB0160931403909329
:1002F00015036AE070E00E949809C09690931F036E
:1003000080931E030E94FC0081E0C330D10521F0E0
:10031000813011F080E016C0C80164E670E00E94F0
:100320009809CB0160931403909315036AE070E081
:100330000E949809C09690931B0380931A030E9411
:10034000FC0081E0C230D10521F0813011F080E065
:1003500016C0C8016AE070E00E949809CB01609362
:100360001403909315036AE070E00E949809C09608
:1003700090931903809318030E94FC0081E0C13020
:10038000D10511F0813061F4C8016AE070E00E948B
:100390009809C09690931D0380931C030E94FC0053
:1003A00026971CF085E40E94FC00DF91CF911F91FD
:1003B0000F91089581B18F6081B982B1807F82B938
:1003C000EAE0F1E0808188618083EBE0F1E0808108
:1003D00088618083089587B1876F87B988B18078F5
:1003E00088B908956C98749A08956D98759A0895CF
:1003F00081B18F6081B982B1807F82B9EAE0F1E09A
:10040000808188618083EBE0F1E080818861808376
:100410006C98749A6D98759A0895F894EAE6F0E0ED
:10042000808182608083EC9A78940895F894EAE65B
:10043000F0E0808188608083ED9A789408951F921F
:100440000F920FB60F9211248F939F93AF93BF9388
:1004500080910C0390910D03A0910E03B0910F03B6
:100460000196A11DB11D80930C0390930D03A093E1
:100470000E03B0930F03BF91AF919F918F910F9097
:100480000FBE0F901F9018951F920F920FB60F92EC
:1004900011248F939F93AF93BF9380910803909102
:1004A0000903A0910A03B0910B030196A11DB11D90
:1004B0008093080390930903A0930A03B0930B035E
:1004C000BF91AF919F918F910F900FBE0F901F9092
:1004D000189592B1907F8F70892B82B9089582B15F
:1004E000807F866082B9089582B1807F896082B9F9
:1004F000089582B1807F856082B9089582B1807F3E
:100500008A6082B9089582B1807F846082B908953B
:1005100082B1807F826082B9089582B1807F8160DC
:1005200082B9089582B1807F886082B9089582B1CE
:10053000807F82B90895EF92FF920F931F93A0E0FE
:10054000B0E0BC01CD010E942A0728E431EE42E868
:1005500050E40E94FA050E9424047B018C01109251
:100560000C0310920D0310920E0310920F031092C1
:1005700008031092090310920A0310920B032091B2
:1005800008033091090340910A0350910B0381E065
:1005900061E0A90122E030E00E944A0120910C03B1
:1005A00030910D0340910E0350910F0382E061E002
:1005B000A90122E030E00E944A0180910C03909151
:1005C0000D03A0910E03B0910F0320910803309109
:1005D000090340910A0350910B038E159F05A00754
:1005E000B10728F42E153F054007510740F282B1AC
:1005F000807F82B91F910F91FF90EF900895EF9245
:10060000FF920F931F93A0E0B0E0BC01CD010E94C8
:100610002A0725EE30ED4AEA50E40E94FA050E94CE
:1006200024047B018C01109208031092090310929C
:100630000A0310920B0320910803309109034091A3
:100640000A0350910B0381E061E0A90122E030E050
:100650000E944A0120910C0330910D0340910E033A
:1006600050910F0382E061E0A90122E030E00E9496
:100670004A018091080390910903A0910A03B09167
:100680000B03E816F9060A071B07A8F682B1807F5C
:1006900082B91F910F91FF90EF90089522B1207FB2
:1006A000266022B90E94FF02089522B1207F2960AE
:1006B00022B90E94FF02089522B1207F256022B94D
:1006C0000E949B02089522B1207F2A6022B90E94D5
:1006D0009B02089522B1207F246022B9880F991FC0
:1006E0000E949B02089522B1207F226022B9880FC8
:1006F000991F0E949B02089522B1207F216022B998
:10070000880F991F0E949B02089522B1207F2860C4
:1007100022B9880F991F0E949B020895F8940E94A5
:10072000F80187B1876F87B988B1807888B9F89464
:10073000EAE6F0E0808182608083EC9A7894F89415
:10074000EAE6F0E0808188608083ED9A789478947E
:100750000895CF93DF930E948E030E94E8000E94C9
:100760009500C0E7D1E084E690E00E944E0382B19C
:10077000807F82B988E893E1FE013197F1F7019714
:10078000D9F784E690E00E94550382B1807F82B958
:1007900088E893E1FE013197F1F70197D9F78AE5EF
:1007A00090E00E945C0382B1807F82B988E893E187
:1007B000FE013197F1F70197D9F78AE590E00E94A1
:1007C000630382B1807F82B988E893E1FE013197AB
:1007D000F1F70197D9F78AE590E00E946A0382B1A8
:1007E000807F82B988E893E1FE013197F1F70197A4
:1007F000D9F78AE590E00E94730382B1807F82B9C5
:1008000088E893E1FE013197F1F70197D9F78AE57E
:1008100090E00E947C0382B1807F82B988E893E1F6
:10082000FE013197F1F70197D9F78AE590E00E9430
:10083000850382B1807F82B988E893E1FE01319718
:10084000F1F70197D9F78FCFEF92FF920F931F9394
:100850007B018C0120E030E040E05FE40E94A606CE
:1008600088238CF0C801B70120E030E040E05FE46D
:100870000E949C050E94D6069B01AC01205030408E
:100880004040504806C0C801B7010E94D6069B01EF
:10089000AC01B901CA011F910F91FF90EF9008952B
:1008A000A0E0B0E0E6E5F4E00C94AC09DC012B013B
:1008B000FA019C91923008F439C1EB0188818230B1
:1008C00008F433C1943069F4843009F02FC11196D3
:1008D0009C9111978981981709F428C1A0E0B2E092
:1008E00025C1843009F421C18230A9F4923009F085
:1008F0001DC19A01AD0188E0EA010990AE01E9014C
:1009000009929E018150C1F7E201898111969C9163
:100910008923818308C1923009F407C112962D9072
:100920003C901397EB018A819B811496AD90BD900A
:10093000CD90DC901797EC80FD800E811F81910196
:10094000281B390BB90137FF04C066277727621BC4
:10095000730B603271050CF061C0121613066CF552
:1009600037014801062E04C09694879477946794C3
:100970000A94D2F721E030E040E050E004C0220FBA
:10098000331F441F551F6A95D2F721503040404015
:1009900050402E213F21402351232115310541058F
:1009A000510521F021E030E040E050E079018A017A
:1009B000E628F728082919293CC0232BD1F1260E57
:1009C000371E35014601062E04C09694879477940D
:1009D00067940A94D2F721E030E040E050E004C090
:1009E000220F331F441F551F6A95D2F72150304004
:1009F000404050402A213B214C215D2121153105E9
:100A00004105510521F021E030E040E050E059017E
:100A10006A01A628B728C828D9280BC082159305D3
:100A20002CF01C01AA24BB24650103C0EE24FF2482
:100A3000870111969C91D20111968C91981709F417
:100A400045C0992339F0A80197012A193B094C099F
:100A50005D0906C0A60195012E193F09400B510BF7
:100A600057FD08C011823382228224833583468356
:100A700057831DC081E08183338222828827992792
:100A8000DC01821B930BA40BB50B84839583A68397
:100A9000B7830DC0220F331F441F551F2483358396
:100AA0004683578382819381019793838283248134
:100AB000358146815781DA01C9010197A109B10940
:100AC0008F5F9F4FAF4FBF4328F30BC0918333829B
:100AD0002282EA0CFB1C0C1D1D1DE482F58206839C
:100AE000178383E08083248135814681578157FFB6
:100AF0001AC0C901AA2797FDA095BA2F81709070DE
:100B0000A070B0705695479537952795822B932BFB
:100B1000A42BB52B84839583A683B783828193818D
:100B2000019693838283DF0101C0D201CD01CDB74D
:100B3000DEB7E2E10C94C809A0E2B0E0E2EAF5E039
:100B40000C94B80969837A838B839C832D833E83BD
:100B50004F835887E9E0EE2EF12CEC0EFD1ECE01FE
:100B60000196B7010E94C7088E010F5E1F4FCE018C
:100B70000596B8010E94C7088A8991E089278A8B67
:100B8000C701B801AE01475E5F4F0E9450040E944A
:100B9000F207A096E6E00C94D409A0E2B0E0E3ED01
:100BA000F5E00C94B80969837A838B839C832D8349
:100BB0003E834F835887F9E0EF2EF12CEC0EFD1E9B
:100BC000CE010196B7010E94C7088E010F5E1F4F2C
:100BD000CE010596B8010E94C708C701B801AE0151
:100BE000475E5F4F0E9450040E94F207A096E6E025
:100BF0000C94D409A8E1B0E0E0E0F6E00C94B4096C
:100C000069837A838B839C832D833E834F835887AC
:100C1000B9E0EB2EF12CEC0EFD1ECE010196B701D2
:100C20000E94C7088E010F5E1F4FCE010596B801C6
:100C30000E94C7082985223008F47EC039893230E5
:100C400010F4B8017CC08A859A8989278A87243064
:100C500011F0223031F4231709F06EC060E072E029
:100C60006EC0343039F41D861E861F86188A1C8695
:100C70001B8604C0323021F484E08987B7015FC04D
:100C80002B853C858B899C89281B390B3C872B87BE
:100C9000ED84FE840F851889AD88BE88CF88D88CF6
:100CA000EA14FB040C051D0540F4EE0CFF1C001FAC
:100CB000111F215030403C872B8720E030E040E07E
:100CC00050E080E090E0A0E0B0E460E070E0EA1482
:100CD000FB040C051D0540F0282B392B4A2B5B2B00
:100CE000EA18FB080C091D09B695A79597958795F5
:100CF000EE0CFF1C001F111F6F5F7F4F6F317105DE
:100D000031F7DA01C9018F779070A070B07080342C
:100D10009105A105B10561F427FD0AC0E114F104B4
:100D20000105110529F0205C3F4F4F4F5F4F2078A0
:100D30002D873E874F87588BBE01675F7F4FCB0162
:100D40000E94F2076896EAE00C94D009A8E1B0E0AE
:100D5000ECEAF6E00C94B80969837A838B839C8370
:100D60002D833E834F83588789E0E82EF12CEC0ECB
:100D7000FD1ECE010196B7010E94C7088E010F5ECD
:100D80001F4FCE010596B8010E94C70889858230A1
:100D900040F08989823028F0C701B8010E943F09DC
:100DA00001C08FEF6896E6E00C94D409ACE0B0E0A7
:100DB000ECEDF6E00C94BC0969837A838B839C8309
:100DC000CE010196BE016B5F7F4F0E94C7088D81E7
:100DD000823061F1823050F1843021F48E81882399
:100DE00051F12EC02F81388537FD20C06E812F3103
:100DF00031051CF06623F9F023C08EE190E0821BE0
:100E0000930B29853A854B855C8504C0569547959B
:100E1000379527958A95D2F76623B1F0509540957E
:100E2000309521953F4F4F4F5F4F0EC020E030E08F
:100E300040E050E009C02FEF3FEF4FEF5FE704C005
:100E400020E030E040E050E8B901CA012C96E2E031
:100E50000C94D809A8E0B0E0E0E3F7E00C94B40902
:100E60007B018C01611571058105910519F482E002
:100E7000898360C083E089838EE1C82ED12CDC8217
:100E8000CB82ED82FE820F831887C801B7010E94D2
:100E9000A307FC013197F7FF3BC0222733272E1B06
:100EA0003F0B57016801022E04C0D694C794B79433
:100EB000A7940A94D2F740E050E060E070E081E04F
:100EC00090E0A0E0B0E004C0880F991FAA1FBB1FEC
:100ED0002A95D2F70197A109B1098E219F21A0235C
:100EE000B1230097A105B10521F041E050E060E099
:100EF00070E04A295B296C297D294D835E836F83CD
:100F000078878EE190E08E1B9F0B9C838B8312C0B1
:100F1000309781F00E2E04C0EE0CFF1C001F111F35
:100F20000A94D2F7ED82FE820F831887CE1ADF0A69
:100F3000DC82CB821A82CE0101960E94F2072896AB
:100F4000EAE00C94D009EF92FF920F931F937B017C
:100F50008C0180E0E81680E0F80681E0080780E078
:100F6000180788F48FEFE816F1040105110531F038
:100F700028F088E090E0A0E0B0E017C080E090E0CA
:100F8000A0E0B0E012C080E0E81680E0F80680E063
:100F9000080781E0180728F088E190E0A0E0B0E0C1
:100FA00004C080E190E0A0E0B0E020E230E040E06A
:100FB00050E0281B390B4A0B5B0B04C016950795B4
:100FC000F794E7948A95D2F7F701E85FFD4F8081A7
:100FD000281B310941095109C9011F910F91FF9047
:100FE000EF900895DF92EF92FF920F931F93FC0111
:100FF000E480F58006811781D1808081823048F4B9
:1010000080E090E0A0E1B0E0E82AF92A0A2B1B2B4F
:10101000A5C0843009F49FC0823021F4EE24FF245F
:10102000870105C0E114F1040105110519F4E0E0A0
:10103000F0E096C0628173819FEF623879070CF00F
:101040005BC022E83FEF261B370B2A3131052CF01D
:1010500020E030E040E050E02AC0B801A701022EB5
:1010600004C076956795579547950A94D2F781E025
:1010700090E0A0E0B0E004C0880F991FAA1FBB1F3A
:101080002A95D2F70197A109B1098E219F21A023AA
:10109000B1230097A105B10521F081E090E0A0E027
:1010A000B0E09A01AB01282B392B4A2B5B2BDA01DC
:1010B000C9018F779070A070B07080349105A10540
:1010C000B10539F427FF09C0205C3F4F4F4F5F4FF8
:1010D00004C0215C3F4F4F4F5F4FE0E0F0E0203015
:1010E000A0E03A07A0E04A07A0E45A0710F0E1E0C8
:1010F000F0E079018A0127C06038710564F5FB01D1
:10110000E158FF4FD801C7018F779070A070B07081
:1011100080349105A105B10539F4E7FE0DC080E4E6
:1011200090E0A0E0B0E004C08FE390E0A0E0B0E089
:10113000E80EF91E0A1F1B1F17FF05C0169507951D
:10114000F794E794319687E016950795F794E7941E
:101150008A95D1F705C0EE24FF248701EFEFF0E078
:101160006E2F679566276795902F9F77D794DD241C
:10117000D7948E2F8695492F462B582F5D29B7017E
:10118000CA011F910F91FF90EF90DF900895FC012D
:10119000DB01408151812281622F6F7770E0221F35
:1011A0002227221F9381892F880F822B282F30E03E
:1011B000991F9927991F11969C9311972115310515
:1011C000A9F5411551056105710511F482E037C09B
:1011D00082E89FEF13969C938E9312979A01AB012E
:1011E00067E0220F331F441F551F6A95D1F783E034
:1011F0008C930DC0220F331F441F551F12968D91E3
:101200009C911397019713969C938E93129720307D
:1012100080E0380780E0480780E4580758F31496C8
:101220002D933D934D935C93179708952F3F310570
:1012300079F4411551056105710519F484E08C9329
:10124000089564FF03C081E08C9312C01C9210C00B
:101250002F57304013963C932E93129783E08C9334
:1012600087E0440F551F661F771F8A95D1F770647A
:1012700014964D935D936D937C93179708951F93E8
:10128000DC01FB019C91923008F447C080818230E0
:1012900008F443C0943051F411961C91843099F5B0
:1012A0008181682F70E0611B71093FC0843021F09B
:1012B000923031F48230B9F18181882389F12DC0D7
:1012C00011961C9111978230F1F081811817D9F491
:1012D00012962D913C9113978281938182179307E7
:1012E00094F028173907BCF014968D919D910D90BC
:1012F000BC91A02D2481358146815781281739075B
:101300004A075B0718F4112341F00AC082179307BC
:10131000A407B50740F4112319F061E070E005C09F
:101320006FEF7FEF02C060E070E0CB011F91089586
:10133000AA1BBB1B51E107C0AA1FBB1FA617B707FB
:1013400010F0A61BB70B881F991F5A95A9F7809517
:101350009095BC01CD0108952F923F924F925F92DC
:101360006F927F928F929F92AF92BF92CF92DF92B5
:10137000EF92FF920F931F93CF93DF93CDB7DEB71A
:10138000CA1BDB0B0FB6F894DEBF0FBECDBF19949E
:101390002A88398848885F846E847D848C849B8405
:1013A000AA84B984C884DF80EE80FD800C811B8113
:1013B000AA81B981CE0FD11D0FB6F894DEBF0FBE42
:0A13C000CDBFED010895F894FFCFB2
:1013CA000000000000000000000102020303030302
:1013DA0004040404040404040505050505050505BB
:1013EA00050505050505050506060606060606069B
:1013FA000606060606060606060606060606060683
:10140A00060606060606060607070707070707076A
:10141A000707070707070707070707070707070752
:10142A000707070707070707070707070707070742
:10143A000707070707070707070707070707070732
:10144A00070707070707070708080808080808081A
:10145A000808080808080808080808080808080802
:10146A0008080808080808080808080808080808F2
:10147A0008080808080808080808080808080808E2
:10148A0008080808080808080808080808080808D2
:10149A0008080808080808080808080808080808C2
:1014AA0008080808080808080808080808080808B2
:1014BA0008080808080808080808080808080808A2
:0814CA000808080808080808DA
:00000001FF
