:100000000C9472000C9493000C9493000C94930045
:100010000C9493000C944F020C942A020C949300BD
:100020000C9493000C9493000C9493000C94930004
:100030000C9493000C9493000C9493000C949300F4
:100040000C9493000C9493000C9493000C949300E4
:100050000C9493000C9493000C9493000C949300D4
:100060000C9493000C9493000C9493000C949300C4
:100070000C9493000C9493000C9493000C949300B4
:100080000C9493000C9493000C9493000C949300A4
:100090000C9493000C9493000C9493000C94930094
:1000A0000C9493000C9493000C9493000C94930084
:1000B0000C9493000C9493000C9493000C94930074
:1000C0000C9493000C9493000C9493000C94930064
:1000D0000C9493000C9493000C9493000C94930054
:1000E0000C94930011241FBECFEFD1E2DEBFCDBF31
:1000F00000E00CBF15E0A0E0B2E0ECEBF4E200E0C1
:100100000BBF02C007900D92A634B107D9F71CE0CF
:10011000A6E4B5E001C01D92A030B107E1F70E944E
:10012000840B0C945C120C94000086E69EE0FC01AB
:100130003197F1F74098419840E348B9429A20E05E
:1001400038E4F9013197F1F74298FC013197F1F762
:100150004098419848B9429AF9013197F1F742988D
:10016000FC013197F1F74098419848B9429AF9015A
:100170003197F1F742980197F1F74098419880E262
:1001800088B9429AC9010197F1F74298089598B148
:100190009F7098B928B1982F907F922B98B940986A
:1001A0004198429A20E038E4F9013197F1F74298FA
:1001B00098B19F7098B998B18295807F982B98B923
:1001C00040984198429AC9010197F1F742980895E1
:1001D00086E69EE00197F1F788E20E94C70081E081
:1001E0000E94C70086E00E94C7008EE00E94C70000
:1001F00080E80E94C700089598B19F7098B928B10F
:10020000982F907F922B98B9409A4198429A20E07B
:1002100038E4F9013197F1F7429898B19F7098B995
:1002200098B18295807F982B98B9409A4198429ACC
:10023000C9010197F1F74298089580E80E94C7002C
:100240000895CF93DF93EC0103C00E94FC00219638
:1002500088818823D1F7DF91CF910895823069F0AA
:10026000833018F48130A9F405C0833049F084301C
:1002700081F40BC0862F815805C0862F815402C09F
:10028000862F8D560E94C7000895862F8D520E949A
:10029000C70008950F931F93CF93DF938A01E9015D
:1002A000882311F0662319F40E941D0102C00E94E8
:1002B0002E01C530D10571F4C80160E177E20E94DA
:1002C000FE11CB01C0969093A4058093A3050E94D4
:1002D000FC0005C0C430D10511F080E016C0C80193
:1002E00068EE73E00E94FE11CB0160931B089093AF
:1002F0001C086AE070E00E94FE11C09690932708E7
:10030000809326080E94FC0081E0C330D10521F0D3
:10031000813011F080E016C0C80164E670E00E94F0
:10032000FE11CB0160931B0890931C086AE070E0FB
:100330000E94FE11C09690932308809322080E9489
:10034000FC0081E0C230D10521F0813011F080E065
:1003500016C0C8016AE070E00E94FE11CB016093F4
:100360001B0890931C086AE070E00E94FE11C09682
:1003700090932108809320080E94FC0081E0C13006
:10038000D10511F0813061F4C8016AE070E00E948B
:10039000FE11C09690932508809324080E94FC00CB
:1003A00026971CF085E40E94FC00DF91CF911F91FD
:1003B0000F91089581B18F6081B982B1807F82B938
:1003C000EAE0F1E0808188618083EBE0F1E0808108
:1003D000886180830895A1E2B1E01C922FEF209301
:1003E000250181E0809324011092290120932801A6
:1003F00010922B0120932A01ECE2F1E08FEF90E0C4
:100400009183808310922D01208389EA80932001BB
:100410008BE08C93089587B1876F87B988B1807816
:1004200088B908956C98749A08956D98759A08958E
:10043000F894EAE6F0E0808182608083EC9A789418
:100440000895F894EAE6F0E0808188608083ED9A70
:10045000789408951F920F920FB60F9211248F93E4
:100460009F93AF93BF9380914D0590914E05A091BE
:100470004F05B09150050196A11DB11D80934D050A
:1004800090934E05A0934F05B0935005BF91AF9147
:100490009F918F910F900FBE0F901F9018951F92F4
:1004A0000F920FB60F9211248F939F93AF93BF9328
:1004B0008091490590914A05A0914B05B0914C055A
:1004C0000196A11DB11D8093490590934A05A09303
:1004D0004B05B0934C05BF91AF919F918F910F90B9
:1004E0000FBE0F901F90189592B1907F8F70892B3F
:1004F00082B9089582B1807F866082B9089582B101
:10050000807F896082B9089582B1807F856082B9D9
:10051000089582B1807F8A6082B9089582B1807F18
:10052000846082B9089582B1807F826082B9089523
:1005300082B1807F816082B9089582B1807F8860B6
:1005400082B9089582B1807F82B90895EF92FF92B7
:100550000F931F93A0E0B0E0BC01CD010E94900F6B
:1005600028E431EE42E850E40E94600E0E948A0CBA
:100570007B018C0110924D0510924E0510924F0593
:10058000109250051092490510924A0510924B05A1
:1005900010924C0580914D0590914E05A0914F050C
:1005A000B09150052091490530914A0540914B0585
:1005B00050914C058E159F05A007B10728F42E1504
:1005C0003F054007510730F382B1807F82B91F9108
:1005D0000F91FF90EF900895EF92FF920F931F936A
:1005E000A0E0B0E0BC01CD010E94900F25EE30EDFF
:1005F0004AEA50E40E94600E0E948A0C7B018C0142
:1006000010924D0510924E0510924F051092500514
:1006100080914D0590914E05A0914F05B0915005E8
:100620008093490590934A05A0934B05B0934C05E0
:100630008091490590914A05A0914B05B0914C05D8
:1006400020914D0530914E0540914F055091500538
:10065000E816F9060A071B0728F0E216F306040756
:10066000150730F782B1807F82B91F910F91FF90FB
:10067000EF90089522B1207F266022B90E94EC02FB
:10068000089522B1207F296022B90E94EC020895CA
:1006900022B1207F256022B90E94A602089522B1CE
:1006A000207F2A6022B90E94A602089522B1207FED
:1006B000246022B9880F991F0E94A602089522B1D2
:1006C000207F226022B9880F991F0E94A6020895F8
:1006D00022B1207F216022B9880F991F0E94A602B3
:1006E000089522B1207F286022B9880F991F0E94A7
:1006F000A602089510BA11BA1092070110920801CB
:100700000895EAE7F0E0108210927B0010927C00DE
:1007100086E8808380E880BF08950F931F93182F89
:10072000062F82E061E0412F50E023E030E00E949C
:100730004A0182E065E0402F50E023E030E00E9473
:100740004A011093280100932A011F910F910895E7
:1007500081B18F6081B982B1807F82B9EAE0F1E036
:10076000808188618083EBE0F1E080818861808313
:100770006C98749A6D98759A0895F8940E94A803DD
:1007800087B1876F87B988B1807888B910BA11BAF4
:100790001092070110920801A1E2B1E01C922FEF24
:1007A0002093250181E08093240110922901209358
:1007B000280110922B0120932A01ECE2F1E08FEF47
:1007C00090E09183808310922D01208389EA8093A9
:1007D00020018BE08C93F894EAE6F0E0808182605F
:1007E0008083EC9A7894F894EAE6F0E0808188605F
:1007F0008083ED9A7894EAE7F0E0108210927B0013
:1008000010927C0086E8808380E880BF7894089509
:10081000982F883018F088E080937B009770906262
:1008200090937C0080917A00806480937A0080911C
:100830007A0084FFFCCF8091790090917A009061DA
:1008400090937A0010927B0008950F931F93182FB6
:10085000062F842F0E940804482F80931D08812FA3
:10086000602F50E023E030E00E944A011F910F9179
:1008700008959C01FC01B3E0EE0FFF1FBA95E1F76C
:10088000220F331FE20FF31FEB55FA4F46815781BA
:100890009C01FC0173E0EE0FFF1F7A95E1F7220F38
:1008A000331FE20FF31FEB55FA4F2481358184E1AA
:1008B00090E0489FD001499FB00D589FB00D112482
:1008C000A65DB74F289FF001299FF00D389FF00DCE
:1008D0001124E65DF74F14964D915C911597848134
:1008E0009581481B590B12968D919C9113972281EB
:1008F0003381821B930B9C01229FC001239F900D8B
:10090000329F900D1124449F9001459F300D549FBC
:10091000300D1124820F931F97FD03C080E090E0FB
:100920000895FFCFCF92DF92EF92FF920F931F9324
:10093000FC0171836083538342833583248317834F
:100940000683F186E086D386C2861F910F91FF90C1
:10095000EF90DF90CF9008959C01FB0189319105C4
:100960002CF49183808321E030E0FAC08D31910531
:1009700009F480C08E319105A4F48A319105B9F152
:100980008B3191052CF48931910509F0E7C01AC02B
:100990008B31910509F440C08C31910509F0DEC01E
:1009A00052C08F31910509F493C08F3191050CF439
:1009B00078C08032910509F4A2C08132910509F016
:1009C000CDC0B4C081E090E09183808382E090E06C
:1009D0009383828388E190E09583848337832683A1
:1009E0008AE190E0918780878BE190E0B5C089E152
:1009F00090E091838083338322838CE190E0958320
:100A000084838DE190E0978386838EE190E09187E7
:100A100080878FE190E0A0C084E090E091838083A4
:100A200085E090E09383828386E090E095838483E1
:100A30008CE190E0978386838DE190E091878087B9
:100A400080E290E089C088E090E09183808389E033
:100A500090E0938382838AE090E09583848381E2AF
:100A600090E09783868382E290E09187808783E29B
:100A700090E072C081E290E09183808382E290E016
:100A80009383828384E290E09583848385E290E07F
:100A90009783868386E290E09187808787E290E063
:100AA0005BC08CE090E0918380838DE090E0938345
:100AB00082838EE090E09583848384E290E0978344
:100AC000868385E290E09187808788E290E044C049
:100AD00080E190E09183808381E190E09383828341
:100AE00082E190E09583848389E290E09783868316
:100AF0008AE290E0918780878BE290E02DC089E2C6
:100B000090E0918380838AE290E0938382838CE2F9
:100B100090E0958384838DE290E0978386838EE2D4
:100B200090E0918780878FE290E016C084E190E0AA
:100B30009183808385E190E09383828386E190E0D6
:100B4000958384838CE290E0978386838DE290E0A6
:100B50009187808780E390E09387828726E030E06A
:100B6000C9010895AC01FC01B3E0EE0FFF1FBA9577
:100B7000E1F7880F991FE80FF91FEB55FA4F248111
:100B800035812617370779F4CA01FA0133E0EE0FF1
:100B9000FF1F3A95E1F7880F991FE80FF91FEB55F2
:100BA000FA4F26813781C90108959A01FA013196D9
:100BB000EE0FFF1FE80FF91FD901AA0FBB1FA80FE7
:100BC000B91F6150704006C0819191918D939D93A2
:100BD0002F5F3F4F26173707BCF30895CF93DF935E
:100BE000EC01FB013197EE0FFF1FEC0FFD1FDB0146
:100BF000AA0FBB1FAC0FBD1F07C08081918111964A
:100C00009C938E93329712976150704064177507CA
:100C1000A4F7440F551FC40FD51F39832883DF91D4
:100C2000CF9108952F923F924F925F926F927F9251
:100C30008F929F92AF92BF92CF92DF92EF92FF92EC
:100C40000F931F93DF93CF93CDB7DEB7CC58D3402C
:100C50000FB6F894DEBF0FBECDBFC557DC4F9983EA
:100C60008883CB58D3401B01DE01A953BE4FEAE76E
:100C7000F3E084EC01900D928150E1F7DE01A5577D
:100C8000BD4FEEE7F2E08CEF01900D928150E1F75D
:100C9000DE01A75BBE4FE0E0F2E08EE701900D922F
:100CA0008150E1F7EAE2F8E0DE01A953BE4F20E00F
:100CB00030E0318320838D919C91119793838283BF
:100CC00012968D919C911397958384831782168237
:100CD0002F5F3F4F749614962133310551F7E5EAA3
:100CE000EE2EE5E0FE2E79E4672E71E0772E6C0E95
:100CF0007D1E6BE8862E62E0962E8C0E9D1EAA2429
:100D0000BB2454E1452E512CD70111961C921E9202
:100D1000F3018081918113969C938E931297F40135
:100D2000A081B1811197F701B583A483F401628199
:100D3000738161507040F70177836683649D600121
:100D4000659DD00C749DD00C11242AE238E0C20EAF
:100D5000D31EA49D8001A59D100DB49D100D1124DE
:100D6000020F131FF60144815581F801848195819A
:100D7000481B590BF60182819381F801228133814E
:100D8000821B930B9C01229FC001239F900D329FD9
:100D9000900D1124449F9001459F300D549F300DBC
:100DA0001124820F931F97FD61C3F70111861086EE
:100DB000F80186819781FD0143E0EE0FFF1F4A9500
:100DC000E1F7AA0FBB1FEA0FFB1FE80FF91FEE0F99
:100DD000FF1FE65DF74FB186A0860196D8011796F2
:100DE0009C938E931697F60186819781FB0113E001
:100DF000EE0FFF1F1A95E1F7660F771FE60FF71F3B
:100E0000E80FF91FEE0FFF1FE65DF74FB186A086D2
:100E10000196D60117969C938E9316970894A11C61
:100E2000B11CEAE0F0E0EE0EFF1E22E030E0620EC0
:100E3000731E84E090E0880E991E9FE3A916B1040A
:100E400009F062CFC101BE016F5F7F4F0E94AC0409
:100E5000C957DC4F99838883C758D340FE01B196A8
:100E60002FEF3FEFCE018D579F4F21933193E8171E
:100E7000F907D9F7DF0120E23EE4AF01CE018B5143
:100E80009F4F2D933D93A817B907D9F7C557DC4F4E
:100E900088819981CB58D3400197FC01EE0FFF1F49
:100EA000E40FF51F118210828D939C9301E010E0F6
:100EB00063E8262E312C2C0E3D1E55EE452E512C6E
:100EC0004C0E5D1E2AC1D6012D913C91215030401F
:100ED000220F331FE1E0F0E0EC0FFD1FE20FF31FE4
:100EE00080A191A18F5F9F4FD1F140E050E051016F
:100EF000A20EB31E31C0BA01660F771F640D751DB7
:100F0000DB01ED91FC91EE0FFF1FE20DF31D20813F
:100F10003181F501808191812817390714F4C801C6
:100F200018C0DA011196AA0FBB1FA40DB51DFB0155
:100F30009A01B8016150704006C08D919D918193D6
:100F400091932F5F3F4FCB0126173707B4F34150E2
:100F500050404F5F5F4F8C014017510764F2089477
:100F6000E11CF11C22E030E0C20ED31EC957DC4F59
:100F700088819981C758D340E816F9060CF4A3CFAD
:100F800060E070E0B3C0FB01EE0FFF1FE40DF51D44
:100F9000A080B180A4E1B0E0AA9EC001AB9E900DFC
:100FA000BA9E900D1124FC01E65DF74F2681378132
:100FB000C757DC4F39832883C958D340E2E3CE2E8C
:100FC000E8E0DE2EC80ED91E662477244501880C81
:100FD000991C820C931C7EC0D6012C9111963C91D9
:100FE000C901FC0143E0EE0FFF1F4A95E1F7880FAE
:100FF000991FE80FF91FEB55FA4FE480F580EA14CA
:10100000FB0479F4C901FC01A3E0EE0FFF1FAA95D0
:10101000E1F7880F991FE80FF91FEB55FA4FE680AB
:10102000F780C901F90143E0EE0FFF1F4A95E1F790
:10103000880F991FE80FF91FEB55FA4FD4014D9116
:101040005C9180859185480F591FF701EE0FFF1FB6
:10105000E20DF31D8081918148175907A4F56F5F58
:101060007F4F9801F8013197EE0FFF1FE40DF51D3A
:10107000D801AA0FBB1FA40DB51D07C080819181A7
:1010800011969C938E9332971297215030402617D9
:101090003707A4F7F701EE0FFF1FD101AE0FBF1FF7
:1010A0004D935C9321E030E02C0F3D1FE20FF31FC6
:1010B000B1A2A0A2FB01EE0FFF1FE40DF51DF1820E
:1010C000E0820F5F1F4F0894611C711C82E090E06A
:1010D000C80ED91EC757DC4FA881B981C958D34063
:1010E0006A167B060CF478CF6F5F7F4F601771072D
:1010F0000CF449CF1016110684F08E010D5F1F4FBE
:1011000041E050E0EE24FF24BE016F5F7F4F93E883
:10111000C92ED12CCC0EDD1E26C06E010894C11C38
:10112000D11CEE24FF2422CFF801A081B1811197B8
:10113000AA0FBB1FAC0DBD1D260F371FF901808103
:1011400091810197880F991F8C0D9D1D2D913C91C8
:10115000DC018D919C91281739070CF47A014F5FBF
:101160005F4F0E5F1F4F9701220F331FC957DC4F90
:10117000E881F981C758D3404E175F07ACF2620F80
:10118000731FDB012D913C912150304010922908B2
:10119000109228083E010894611C711C74E1872E8E
:1011A000912C6DE0A62EB12CAC0EBD1E55E1C52EC6
:1011B000D12CCC0EDD1ED1C0809128089091290839
:1011C0002F5F3F4FFC01EE0FFF1FEF5AFA4F3183A5
:1011D000208321503040019690932908809328085D
:1011E000289DF001299DF00D389DF00D1124D501A9
:1011F000E65DF74F84E101900D928150E1F76B8934
:101200007C89D60140E050E01EC0ED90FC90119723
:10121000F701EE0FFF1FC701880F991F880F991F55
:10122000880F991FE80FF91FEB55FA4F84819581BC
:101230008217930711F48681978112968017910780
:1012400029F04F5F5F4F46175707FCF2F701EE0F8B
:10125000FF1FC70163E0880F991F6A95E1F7E80F48
:10126000F91FEB55FA4F8481958128173907B1F49E
:101270002091280830912908828193818C549F4FB6
:10128000F901EE0FFF1FEF5AFA4F918380832F5F12
:101290003F4F309329082093280812C080912808D6
:1012A0009091290822813381FC01EE0FFF1FEF5A34
:1012B000FA4F318320830196909329088093280860
:1012C000E0912808F0912908EE0FFF1FE15BFA4F2B
:1012D00080819181853B91056CF0E0912808F09127
:1012E0002908EE0FFF1FE15BFA4F8081918188563C
:1012F000914019C0E0912808F0912908EE0FFF1FD6
:10130000E15BFA4F808191818D549F4F74F4E0919D
:101310002808F0912908EE0FFF1FE15BFA4F80814A
:10132000918188599E4F91838083E0912808F091A4
:101330002908A0912808B0912908AA0FBB1FA15B1A
:10134000BA4F8D919C91909581959F4FEE0FFF1F05
:10135000E15BFA4F918380839801F901EE0FFF1F43
:10136000E60DF71D00A111A1EFEF0F3F1E0709F0D9
:1013700023CF8091280890912908FC01EE0FFF1FD0
:10138000EF5AFA4FC557DC4F28813981CB58D340EB
:10139000318320830196909329088093280800E0E8
:1013A00010E027C0D801AA0FBB1FAF5ABA4F2D912A
:1013B0003C911197E0912808F09129083197E01BA2
:1013C000F10BEE0FFF1FEF5AFA4F808191811196BA
:1013D0009C938E93E0912808F09129083197E01BA7
:1013E000F10BEE0FFF1FEF5AFA4F318320830F5F8F
:1013F0001F4F809128089091290862E070E00E94B8
:1014000012120617170774F221E030E040E050E0B6
:1014100025C0F901EE0FFF1FEF5AFA4F608171816D
:1014200080819181841B950B918380838081918140
:10143000843B91052CF0808191818856914009C0B0
:10144000808191818D549F4F34F48081918188599E
:101450009E4F918380832E5F3F4FAB018091280880
:101460009091290828173907A4F201C0FFCFC4576B
:10147000DC4F0FB6F894DEBF0FBECDBFCF91DF912A
:101480001F910F91FF90EF90DF90CF90BF90AF90A2
:101490009F908F907F906F905F904F903F902F9094
:1014A0000895CF93DF9383E00E940804809346055C
:1014B00082E00E9408048093470581E00E940804AE
:1014C000809348058BE00E94080480914605853191
:1014D00018F0C4E6D0E002C0C0E0D0E0809147053B
:1014E000853108F02A9680914805853108F02196CB
:1014F00081E061E0AE0123E030E00E944A01CE01CC
:10150000DF91CF9108950F931F93CF93DF938C01B9
:1015100082E069E042E050E021E030E00E944A01D0
:101520000E94510A82B1807F866082B910924D0577
:1015300010924E0510924F051092500580914D0566
:1015400090914E05A0914F05B091500580934905AB
:1015500090934A05A0934B05B0934C0580914905A3
:1015600090914A05A0914B05B0914C0520914D05F5
:1015700030914E0540914F05509150050497A105BB
:10158000B10590F5243031054105510568F582E03B
:1015900069E043E050E021E030E00E944A010E940F
:1015A000510A8B309105B1F08C3091054CF48130AB
:1015B000910581F08A30910591F0892B81F0CECF91
:1015C0008E36910551F08F36910549F0843691059C
:1015D00029F603C088EC60E004C080E001C088EC1C
:1015E00068EC0E948D03BACF88EC68EC0E948D03F2
:1015F00082E069E043E050E021E030E00E944A01EF
:1016000082B1807F82B988E893E120E731E0F90177
:101610003197F1F70197D9F71016110624F4C80194
:101620000E944F0309C00115110531F08827992741
:10163000801B910B0E9448030E94510AEC01101676
:1016400011062CF485E090E00E944F033BC0011589
:10165000110529F085E090E00E94480333C082E044
:1016600069E044E050E021E030E00E944A0182B1AC
:10167000807F866082B988EC68EC0E948D03CB3055
:10168000D10571F0CC30D10524F4C130D10579F405
:1016900007C0C436D10539F0CE36D10541F403C0B8
:1016A00088EC60E002C080E068EC0E948D0382E07C
:1016B00069E045E050E021E030E00E944A0182B15B
:1016C000807F82B9CE016AE070E00E941212CB01E5
:1016D0006AE070E00E941212019709F0ADCF88EC29
:1016E00068EC0E948D0382B1807F866082B982E0BF
:1016F00069E046E050E021E030E00E944A01DF91DD
:10170000CF911F910F9108950F931F93CF93DF9364
:101710000E94BD030E9495000E94E80081E090E0D5
:101720006FE170E00E94120688EC68EC0E948D0365
:1017300010921F0810921E0800E711E0CDC08091A2
:101740002808909129080197E817F90739F50E94B0
:10175000510A8B30910509F4CBC08E36910509F4FE
:10176000C7C08F36910509F4C3C08A30910541F096
:101770008436910571F0019751F788EC60E00BC059
:1017800088EC68EC0E948D0382B1807F866082B90C
:10179000DECF80E068EC0E948D03D9CFEE0FFF1FF3
:1017A000EF5AFA4F4081518181E065E023E030E05B
:1017B0000E944A01E0911E08F0911F08EE0FFF1FE2
:1017C000ED5AFA4F4081518181E069E023E030E039
:1017D0000E944A0182B1807F866082B982E069E01E
:1017E00041E050E021E030E00E944A010E94510AAD
:1017F000EC018B309105A1F08C3091053CF48130E7
:10180000910551F18A309105B9F529C084369105C9
:1018100079F18436910584F18E569040029760F5F7
:1018200082B1807F82B988E893E1F8013197F1F7BE
:101830000197D9F7E0911E08F0911F08EE0FFF1FE6
:10184000ED5AFA4F8081918163E070E00E9412129C
:10185000CB010E94830A10C088EC60E00BC088ECCA
:1018600068EC0E948D0382B1807F866082B904C0DB
:1018700080E068EC0E948D0382E069E047E050E080
:1018800021E030E00E944A01CB30D10531F0CE3664
:10189000D10519F0CF36D105B1F482E069E048E016
:1018A00050E021E030E00E944A0182B1807F8660F2
:1018B00082B980911E0890911F08029690931F088C
:1018C00080931E0809C082E069E049E050E021E011
:1018D00030E00E944A0182CFE0911E08F0911F087B
:1018E0008091280890912908E817F9070CF427CF70
:1018F00082B1807F82B982E069E04AE050E022E074
:1019000030E00E944A0180E090E0DF91CF911F918A
:101910000F910895EF92FF920F931F937B018C011B
:1019200020E030E040E05FE40E940C0F88238CF060
:10193000C801B70120E030E040E05FE40E94020E01
:101940000E943C0F9B01AC01205030404040504869
:1019500006C0C801B7010E943C0F9B01AC01B90150
:10196000CA011F910F91FF90EF900895A0E0B0E0A1
:10197000ECEBFCE00C942512DC012B01FA019C91AC
:10198000923008F439C1EB018881823008F433C108
:10199000943069F4843009F02FC111969C9111970D
:1019A0008981981709F428C1AEE3B4E025C18430D9
:1019B00009F421C18230A9F4923009F01DC19A01C5
:1019C000AD0188E0EA010990AE01E90109929E01AA
:1019D0008150C1F7E201898111969C91892381830D
:1019E00008C1923009F407C112962D903C901397CC
:1019F000EB018A819B811496AD90BD90CD90DC90D7
:101A00001797EC80FD800E811F819101281B390BF7
:101A1000B90137FF04C066277727621B730B60325A
:101A200071050CF061C0121613066CF53701480100
:101A3000062E04C096948794779467940A94D2F7FC
:101A400021E030E040E050E004C0220F331F441F8B
:101A5000551F6A95D2F721503040404050402E210A
:101A60003F2140235123211531054105510521F026
:101A700021E030E040E050E079018A01E628F728D3
:101A8000082919293CC0232BD1F1260E371E350118
:101A90004601062E04C096948794779467940A941E
:101AA000D2F721E030E040E050E004C0220F331FC5
:101AB000441F551F6A95D2F7215030404040504096
:101AC0002A213B214C215D2121153105410551057C
:101AD00021F021E030E040E050E059016A01A62801
:101AE000B728C828D9280BC0821593052CF01C01F3
:101AF000AA24BB24650103C0EE24FF2487011196AC
:101B00009C91D20111968C91981709F445C09923A4
:101B100039F0A80197012A193B094C095D0906C053
:101B2000A60195012E193F09400B510B57FD08C026
:101B300011823382228224833583468357831DC0DA
:101B400081E081833382228288279927DC01821BEE
:101B5000930BA40BB50B84839583A683B7830DC029
:101B6000220F331F441F551F248335834683578319
:101B70008281938101979383828324813581468179
:101B80005781DA01C9010197A109B1098F5F9F4F00
:101B9000AF4FBF4328F30BC0918333822282EA0CFC
:101BA000FB1C0C1D1D1DE482F5820683178383E058
:101BB0008083248135814681578157FF1AC0C9012E
:101BC000AA2797FDA095BA2F81709070A070B07071
:101BD0005695479537952795822B932BA42BB52B9C
:101BE00084839583A683B7838281938101969383AF
:101BF0008283DF0101C0D201CD01CDB7DEB7E2E1C2
:101C00000C944112A0E2B0E0E8E0FEE00C94311246
:101C100069837A838B839C832D833E834F8358878C
:101C2000E9E0EE2EF12CEC0EFD1ECE010196B7017F
:101C30000E942D118E010F5E1F4FCE010596B80137
:101C40000E942D118A8991E089278A8BC701B801EA
:101C5000AE01475E5F4F0E94B60C0E945810A096DE
:101C6000E6E00C944D12A0E2B0E0E9E3FEE00C9453
:101C7000311269837A838B839C832D833E834F83C8
:101C80005887F9E0EF2EF12CEC0EFD1ECE010196E7
:101C9000B7010E942D118E010F5E1F4FCE010596D8
:101CA000B8010E942D11C701B801AE01475E5F4F18
:101CB0000E94B60C0E945810A096E6E00C944D12BB
:101CC000A8E1B0E0E6E6FEE00C942D1269837A8389
:101CD0008B839C832D833E834F835887B9E0EB2E03
:101CE000F12CEC0EFD1ECE010196B7010E942D11C4
:101CF0008E010F5E1F4FCE010596B8010E942D1177
:101D00002985223008F47EC03989323010F4B801B8
:101D10007CC08A859A8989278A87243011F02230ED
:101D200031F4231709F06EC06EE374E06EC03430F6
:101D300039F41D861E861F86188A1C861B8604C0E1
:101D4000323021F484E08987B7015FC02B853C8560
:101D50008B899C89281B390B3C872B87ED84FE845B
:101D60000F851889AD88BE88CF88D88CEA14FB040B
:101D70000C051D0540F4EE0CFF1C001F111F215027
:101D800030403C872B8720E030E040E050E080E0AE
:101D900090E0A0E0B0E460E070E0EA14FB040C0521
:101DA0001D0540F0282B392B4A2B5B2BEA18FB082A
:101DB0000C091D09B695A79597958795EE0CFF1C04
:101DC000001F111F6F5F7F4F6F31710531F7DA010F
:101DD000C9018F779070A070B07080349105A10513
:101DE000B10561F427FD0AC0E114F10401051105F4
:101DF00029F0205C3F4F4F4F5F4F20782D873E8763
:101E00004F87588BBE01675F7F4FCB010E945810F0
:101E10006896EAE00C944912A8E1B0E0E2E1FFE044
:101E20000C94311269837A838B839C832D833E8348
:101E30004F83588789E0E82EF12CEC0EFD1ECE0171
:101E40000196B7010E942D118E010F5E1F4FCE012A
:101E50000596B8010E942D118985823040F089894C
:101E6000823028F0C701B8010E94A51101C08FEF90
:101E70006896E6E00C944D12ACE0B0E0E2E4FFE0DE
:101E80000C94351269837A838B839C83CE010196EF
:101E9000BE016B5F7F4F0E942D118D81823061F1F9
:101EA000823050F1843021F48E81882351F12EC08C
:101EB0002F81388537FD20C06E812F3131051CF010
:101EC0006623F9F023C08EE190E0821B930B2985F5
:101ED0003A854B855C8504C056954795379527957F
:101EE0008A95D2F76623B1F05095409530952195AB
:101EF0003F4F4F4F5F4F0EC020E030E040E050E0DA
:101F000009C02FEF3FEF4FEF5FE704C020E030E064
:101F100040E050E8B901CA012C96E2E00C9451125D
:101F2000A8E0B0E0E6E9FFE00C942D127B018C0103
:101F3000611571058105910519F482E0898360C0FE
:101F400083E089838EE1C82ED12CDC82CB82ED82A6
:101F5000FE820F831887C801B7010E940910FC0197
:101F60003197F7FF3BC0222733272E1B3F0B57012A
:101F70006801022E04C0D694C794B794A7940A941B
:101F8000D2F740E050E060E070E081E090E0A0E057
:101F9000B0E004C0880F991FAA1FBB1F2A95D2F773
:101FA0000197A109B1098E219F21A023B123009798
:101FB000A105B10521F041E050E060E070E04A2960
:101FC0005B296C297D294D835E836F8378878EE141
:101FD00090E08E1B9F0B9C838B8312C0309781F007
:101FE0000E2E04C0EE0CFF1C001F111F0A94D2F726
:101FF000ED82FE820F831887CE1ADF0ADC82CB8245
:102000001A82CE0101960E9458102896EAE00C949C
:102010004912EF92FF920F931F937B018C0180E096
:10202000E81680E0F80681E0080780E0180788F4E9
:102030008FEFE816F1040105110531F028F088E072
:1020400090E0A0E0B0E017C080E090E0A0E0B0E059
:1020500012C080E0E81680E0F80680E0080781E022
:10206000180728F088E190E0A0E0B0E004C080E12B
:1020700090E0A0E0B0E020E230E040E050E0281B3B
:10208000390B4A0B5B0B04C016950795F794E79440
:102090008A95D2F7F701EA5BFB4F8081281B310953
:1020A00041095109C9011F910F91FF90EF900895C7
:1020B000DF92EF92FF920F931F93FC01E480F58073
:1020C00006811781D1808081823048F480E090E0E1
:1020D000A0E1B0E0E82AF92A0A2B1B2BA5C0843026
:1020E00009F49FC0823021F4EE24FF24870105C04B
:1020F000E114F1040105110519F4E0E0F0E096C0E7
:10210000628173819FEF623879070CF05BC022E82F
:102110003FEF261B370B2A3131052CF020E030E051
:1021200040E050E02AC0B801A701022E04C0769515
:102130006795579547950A94D2F781E090E0A0E023
:10214000B0E004C0880F991FAA1FBB1F2A95D2F7C1
:102150000197A109B1098E219F21A023B1230097E6
:10216000A105B10521F081E090E0A0E0B0E09A0186
:10217000AB01282B392B4A2B5B2BDA01C9018F7756
:102180009070A070B07080349105A105B10539F44C
:1021900027FF09C0205C3F4F4F4F5F4F04C0215CB9
:1021A0003F4F4F4F5F4FE0E0F0E02030A0E03A07B4
:1021B000A0E04A07A0E45A0710F0E1E0F0E079015E
:1021C0008A0127C06038710564F5FB01E158FF4FB3
:1021D000D801C7018F779070A070B07080349105DE
:1021E000A105B10539F4E7FE0DC080E490E0A0E060
:1021F000B0E004C08FE390E0A0E0B0E0E80EF91E8C
:102200000A1F1B1F17FF05C016950795F794E79443
:10221000319687E016950795F794E7948A95D1F75C
:1022200005C0EE24FF248701EFEFF0E06E2F6795E5
:1022300066276795902F9F77D794DD24D7948E2FAC
:102240008695492F462B582F5D29B701CA011F914A
:102250000F91FF90EF90DF900895FC01DB0140812A
:1022600051812281622F6F7770E0221F2227221F67
:102270009381892F880F822B282F30E0991F99276F
:10228000991F11969C93119721153105A9F54115B8
:1022900051056105710511F482E037C082E89FEFB6
:1022A00013969C938E9312979A01AB0167E0220FCD
:1022B000331F441F551F6A95D1F783E08C930DC0DF
:1022C000220F331F441F551F12968D919C91139717
:1022D000019713969C938E931297203080E03807D5
:1022E00080E0480780E4580758F314962D933D93F7
:1022F0004D935C93179708952F3F310579F441155D
:1023000051056105710519F484E08C93089564FF0B
:1023100003C081E08C9312C01C9210C02F57304034
:1023200013963C932E93129783E08C9387E0440F8F
:10233000551F661F771F8A95D1F7706414964D93C9
:102340005D936D937C93179708951F93DC01FB01B8
:102350009C91923008F447C08081823008F443C0D9
:10236000943051F411961C91843099F58181682F35
:1023700070E0611B71093FC0843021F0923031F46C
:102380008230B9F18181882389F12DC011961C9189
:1023900011978230F1F081811817D9F412962D919E
:1023A0003C911397828193818217930794F02817A9
:1023B0003907BCF014968D919D910D90BC91A02D84
:1023C0002481358146815781281739074A075B07E1
:1023D00018F4112341F00AC082179307A407B50728
:1023E00040F4112319F061E070E005C06FEF7FEF5A
:1023F00002C060E070E0CB011F910895AA1BBB1BD7
:1024000051E107C0AA1FBB1FA617B70710F0A61BF4
:10241000B70B881F991F5A95A9F780959095BC0115
:10242000CD01089597FB092E07260AD077FD04D029
:10243000E5DF06D000201AF4709561957F4F08956E
:10244000F6F7909581959F4F08952F923F924F9266
:102450005F926F927F928F929F92AF92BF92CF9234
:10246000DF92EF92FF920F931F93CF93DF93CDB73D
:10247000DEB7CA1BDB0B0FB6F894DEBF0FBECDBFB5
:1024800019942A88398848885F846E847D848C8476
:102490009B84AA84B984C884DF80EE80FD800C818F
:1024A0001B81AA81B981CE0FD11D0FB6F894DEBF72
:0C24B0000FBECDBFED010895F894FFCFE2
:1024BC005200AEFF43003400250016000700F9FF60
:1024CC00EAFFDBFFCCFFBDFFAEFF9FFF90FF81FF5C
:1024DC0072FF63FF54FFAC009D008E007F00700004
:1024EC00C4FFC4FF88FF88FF3C000000C4FF88FFC6
:1024FC00B40000003C0088FFC4FFC4FF00000000D3
:10250C00C4FF88FFB40078003C0088FFC4FFC4FF00
:10251C000000B4003C0088FF7800B40088FFC4FFC2
:10252C0000007800B400B400C4FF000088FF010074
:10253C000200010018000200030003000400040064
:10254C00050005000600060007000700080008004B
:10255C00090009000A000A000B000B000C000C001B
:10256C000D000D000E000E000F000F0010001000EB
:10257C0011001100120012001300130014001400BB
:10258C0015001500160016001700170018000300A0
:10259C00190019001A001A001B001B001700190063
:1025AC001C001C001D001D001E001E001F001F0033
:1025BC001A0003001C002000070020001D0007006B
:1025CC002300230022002200210021000B00210007
:1025DC0024002400250025002600260027002700C3
:1025EC0022000B0024002500280028000F002B00DF
:1025FC000F002B002A0029002A00290013002A00B2
:10260C002F002F002E002E002D002D002C002C0052
:10261C00290013002C002D003000300017001A0088
:10262C002D001D00220025002A00390013013F0057
:10263C00DB005400A90075007900A4005900D800F3
:10264C0041000F013B0048013F007D015800AA01E9
:10265C007D00CF01A800E001DD00E9011401E001DB
:10266C004A01CA018001A901A9017D01CA014801E1
:10267C00E4011101E901D600E501A100CD017400CE
:10268C00AC0153007E013F004D017400DF0092004D
:10269C001601720049019300A700D100A700F100B8
:1026AC00D900CE001001F00070008D01A4004D0186
:1026BC00A6002E017300AD01E1008D011501500142
:1026CC0014013001DF00AE0149013101B7014E01A7
:1026DC007E018E018201F100B501D6007E01F00071
:1026EC004D012E01480191007E010F0113010000E4
:1026FC0000000000000000010202030303030404B5
:10270C000404040404040505050505050505050573
:10271C000505050505050606060606060606060653
:10272C00060606060606060606060606060606063D
:10273C000606060606060707070707070707070723
:10274C00070707070707070707070707070707070D
:10275C0007070707070707070707070707070707FD
:10276C0007070707070707070707070707070707ED
:10277C0007070707070708080808080808080808D3
:10278C0008080808080808080808080808080808BD
:10279C0008080808080808080808080808080808AD
:1027AC00080808080808080808080808080808089D
:1027BC00080808080808080808080808080808088D
:1027CC00080808080808080808080808080808087D
:1027DC00080808080808080808080808080808086D
:1027EC00080808080808080808080808080808085D
:0627FC00080808080808A7
:00000001FF
