:100000000C94B3000C94D4000C94D4000C94D40041
:100010000C94D4000C94AB020C9473020C94D40096
:100020000C94D4000C94D4000C94D4000C94D40000
:100030000C94D4000C94D4000C94D4000C94D400F0
:100040000C94D4000C94D4000C94D4000C94D400E0
:100050000C94D4000C94D4000C94D4000C94D400D0
:100060000C94D4000C94D4000C94D4000C94D400C0
:100070000C94D4000C94D4000C94D4000C94D400B0
:100080000C94D4000C94D4000C94D4000C94D400A0
:100090000C94D4000C94D4000C94D4000C94D40090
:1000A0000C94D4000C94D4000C94D4000C94D40080
:1000B0000C94D4000C94D4000C94D4000C94D40070
:1000C0000C94D4000C94D4000C94D4000C94D40060
:1000D0000C94D4000C94D4000C94D4000C94D40050
:1000E0000C94D40007634236B79BD8A71A396856D8
:1000F00018AEBAAB558C1D3CB7CC5763BD6DEDFD4A
:10010000753EF6177231BF000000803F0800000006
:10011000BE922449123EABAAAA2ABECDCCCC4C3EFC
:1001200000000080BEABAAAAAA3E00000000BF00EB
:100130000000803F0000000000084178D3BB4387E7
:10014000D1133D190E3CC3BD4282AD2B3E68EC82FB
:1001500076BED98FE1A93E4C80EFFFBE01C4FF7F80
:100160003F000000000011241FBECFEFD1E2DEBF30
:10017000CDBF00E00CBF15E0A0E0B2E0E8ECF0E39A
:1001800000E00BBF02C007900D92A83DB107D9F760
:100190001CE0A8EDB5E001C01D92A839B107E1F758
:1001A0000E948B0B0C9462180C94000086E69EE073
:1001B000FC013197F1F74098419840E348B9429AE1
:1001C00020E038E4F9013197F1F74298FC013197CA
:1001D000F1F74098419848B9429AF9013197F1F7FF
:1001E0004298FC013197F1F74098419848B9429AFA
:1001F000F9013197F1F742980197F1F7409841984A
:1002000080E288B9429AC9010197F1F742980895AE
:1002100098B19F7098B928B1982F907F922B98B978
:1002200040984198429A20E038E4F9013197F1F77B
:10023000429898B19F7098B998B18295807F982B19
:1002400098B940984198429AC9010197F1F74298AC
:10025000089586E69EE00197F1F788E20E94080182
:1002600081E00E94080186E00E9408018EE00E9461
:10027000080180E80E940801089598B19F7098B91C
:1002800028B1982F907F922B98B9409A4198429A22
:1002900020E038E4F9013197F1F7429898B19F7066
:1002A00098B998B18295807F982B98B9409A4198D7
:1002B000429AC9010197F1F74298089580E80E9497
:1002C00008010895CF93DF93EC0103C00E943D0124
:1002D000219688818823D1F7DF91CF9108958230CC
:1002E00069F0833018F48130A9F405C0833049F0F7
:1002F000843081F40BC0862F815805C0862F81542D
:1003000002C0862F8D560E9408010895862F8D52B7
:100310000E94080108950F931F93CF93DF938A01E2
:10032000E901882311F0662319F40E945E0102C0DE
:100330000E946F01C530D10571F4C80160E177E218
:100340000E948D15CB01C09690933C0680933B068E
:100350000E943D0105C0C430D10511F080E016C0F7
:10036000C80168EE73E00E948D15CB016093B3085D
:100370009093B4086AE070E00E948D15C096909347
:10038000BF088093BE080E943D0181E0C330D105C3
:1003900021F0813011F080E016C0C80164E670E001
:1003A0000E948D15CB016093B3089093B4086AE066
:1003B00070E00E948D15C0969093BB088093BA0898
:1003C0000E943D0181E0C230D10521F0813011F061
:1003D00080E016C0C8016AE070E00E948D15CB0174
:1003E0006093B3089093B4086AE070E00E948D15A2
:1003F000C0969093B9088093B8080E943D0181E0AF
:10040000C130D10511F0813061F4C8016AE070E0BB
:100410000E948D15C0969093BD088093BC080E94E1
:100420003D0126971CF085E40E943D01DF91CF91AC
:100430001F910F91089581B18F6081B982B1807F42
:1004400082B9EAE0F1E0808188618083EBE0F1E04D
:10045000808188618083089588E088B908953B9AF7
:100460004398089518B80895A1E2B1E01C922FEFC7
:100470002093250181E0809324011092290120938B
:10048000280110922B0120932A01ECE2F1E08FEF7A
:1004900090E09183808310922D01208389EA8093DC
:1004A00020018BE08C93089587B1876F87B988B15D
:1004B000807888B908956C98749A08956D98759AA3
:1004C0000895F894EAE6F0E0808182608083EC9AF7
:1004D00078940895F894EAE6F0E08081886080835B
:1004E000ED9A789408951F920F920FB60F921124EF
:1004F0008F939F93AF93BF938091E3059091E40511
:10050000A091E505B091E6050196A11DB11D80936E
:10051000E3059093E405A093E505B093E60580918B
:10052000DF059091E005A091E105B091E20501960B
:10053000A11DB11D8093DF059093E005A093E10517
:10054000B093E205BF91AF919F918F910F900FBE35
:100550000F901F9018951F920F920FB60F921124B3
:100560008F939F93AF93BF938091E3059091E405A0
:10057000A091E505B091E6050196A11DB11D8093FE
:10058000E3059093E405A093E505B093E60580911B
:10059000DB059091DC05A091DD05B091DE050196AB
:1005A000A11DB11D8093DB059093DC05A093DD05B3
:1005B000B093DE05BF91AF919F918F910F900FBEC9
:1005C0000F901F90189592B1907F8F70892B82B9F0
:1005D000089582B1807F866082B9089582B1807F5C
:1005E000896082B9089582B1807F856082B908955B
:1005F00082B1807F8A6082B9089582B1807F8460F1
:1006000082B9089582B1807F826082B9089582B1F3
:10061000807F816082B9089582B1807F886082B9CD
:10062000089582B1807F82B90895EF92FF920F936F
:100630001F93A0E0B0E0BC01CD010E941F1328E48D
:1006400031EE42E850E40E9491110E94C10E7B01FC
:100650008C011092DF051092E0051092E1051092D6
:10066000E2051092DB051092DC051092DD05109278
:10067000DE058091DF059091E005A091E105B09144
:10068000E2052091DB053091DC054091DD055091BC
:10069000DE058E159F05A007B10728F42E153F052E
:1006A0004007510730F382B1807F82B91F910F91CB
:1006B000FF90EF900895EF92FF920F931F93A0E0A9
:1006C000B0E0BC01CD010E941F1325EE30ED4AEAD7
:1006D00050E40E9491110E94C10E7B018C01109286
:1006E000DF051092E0051092E1051092E20580917D
:1006F000DF059091E005A091E105B091E2058093BE
:10070000DB059093DC05A093DD05B093DE058091B9
:10071000DB059091DC05A091DD05B091DE0520910F
:10072000DF053091E0054091E1055091E205E816C2
:10073000F9060A071B0728F0E216F3060407150757
:1007400030F782B1807F82B91F910F91FF90EF90B7
:10075000089522B1207F266022B90E945B0308958C
:1007600022B1207F296022B90E945B03089522B143
:10077000207F256022B90E941503089522B1207FB1
:100780002A6022B90E941503089522B1207F2460B7
:1007900022B9880F991F0E941503089522B1207F66
:1007A000226022B9880F991F0E941503089522B173
:1007B000207F216022B9880F991F0E941503089598
:1007C00022B1207F286022B9880F991F0E9415034B
:1007D000089510BA11BA10920701109208010895F5
:1007E000EAE7F0E0108210927B0010927C0086E82D
:1007F000808380E880BF08958093280160932A0158
:10080000089581B18F6081B982B1807F82B9EAE0B9
:10081000F1E0808188618083EBE0F1E08081886194
:1008200080836C98749A6D98759A3B9A4398089552
:10083000F8940E94010487B1876F87B988B18078E6
:1008400088B910BA11BA1092070110920801A1E2FA
:10085000B1E01C922FEF2093250181E080932401C9
:10086000109229012093280110922B0120932A0134
:10087000ECE2F1E08FEF90E09183808310922D0104
:10088000208389EA809320018BE08C93F894EAE638
:10089000F0E0808182608083EC9A7894F894EAE6B4
:1008A000F0E0808188608083ED9A7894EAE7F0E058
:1008B000108210927B0010927C0086E8808380E892
:1008C00080BF78940895982F883018F088E080933E
:1008D0007B009770906290937C0080917A00806496
:1008E00080937A0080917A0084FFFCCF8091790018
:1008F00090917A00906190937A0010927B00089515
:100900000F931F93182F062F842F0E946304482FE4
:100910008093B508812F602F50E023E030E00E94E3
:100920008B011F910F910895CF92DF92EF92FF926A
:100930000F931F93FC01718360835383428335833C
:10094000248317830683F186E086D386C2861F91AF
:100950000F91FF90EF90DF90CF9008959C01FB01E5
:10096000893191052CF49183808321E030E0D1C05E
:100970008D31910509F467C08E3191058CF48A316F
:10098000910571F18B31910524F489319105C1F400
:100990001AC08B319105C9F18C31910589F444C09D
:1009A0008F31910509F475C08F3191050CF462C047
:1009B0008032910509F47CC08132910509F493C01D
:1009C00020E030E0A6C081E090E091838083338313
:1009D00022838AE190E0958384838BE190E091C04B
:1009E00089E190E091838083338322838CE190E0DE
:1009F000958384838DE190E0978386838EE190E0F8
:100A0000918780878FE190E069C085E090E09183D5
:100A100080838CE190E0938382838DE190E09583E5
:100A2000848380E290E06DC089E090E091838083D0
:100A300081E290E09383828382E290E095838483D5
:100A400083E290E05EC081E290E09183808382E265
:100A500090E09383828384E290E09583848385E2AF
:100A600090E09783868386E290E09187808787E293
:100A700090E034C08DE090E09183808384E290E048
:100A80009383828385E290E09583848388E290E07B
:100A900038C081E190E09183808389E290E0938384
:100AA00082838AE290E0958384838BE290E029C080
:100AB00089E290E0918380838AE290E0938382834D
:100AC0008CE290E0958384838DE290E09783868327
:100AD0008EE290E0918780878FE290E09387828713
:100AE00026E030E016C085E190E0918380838CE2BF
:100AF00090E0938382838DE290E09583848380E30A
:100B000090E097838683118610861386128624E0F0
:100B100030E0C9010895AC01FC01B3E0EE0FFF1F06
:100B2000BA95E1F7880F991FE80FF91FE35CF94FB9
:100B3000248135812617370779F4CA01FA0173E059
:100B4000EE0FFF1F7A95E1F7880F991FE80FF91F45
:100B5000E35CF94F26813781C90108959A01FA01B2
:100B60003196EE0FFF1FE80FF91FD901AA0FBB1F27
:100B7000A80FB91F6150704006C0819191918D936B
:100B80009D932F5F3F4F26173707BCF30895CF93F0
:100B9000DF93EC01FB013197EE0FFF1FEC0FFD1F00
:100BA000DB01AA0FBB1FAC0FBD1F07C08081918165
:100BB00011969C938E9332971297615070406417F0
:100BC0007507A4F7440F551FC40FD51F3983288319
:100BD000DF91CF910895AC01415050406150704079
:100BE000EDE3F6E0A1E0B0E024813581241735077C
:100BF00029F4868197818617970741F026173707D2
:100C000039F4868197818417950711F4B183A08305
:100C10003A9688E0E33BF80739F708958F929F9260
:100C2000AF92BF92CF92DF92EF92FF920F931F93FA
:100C3000DF93CF93CDB7DEB7CC5BD2400FB6F8943D
:100C4000DEBF0FBECDBFDE01A350BF4FECE0F4E02E
:100C500084EC01900D928150E1F7DE01AF53BE4F5D
:100C6000E0E1F3E08CEF01900D928150E1F7DE01BD
:100C70001196E2E9F2E08EE701900D928150E1F7E2
:100C8000DE01A158BF4FE4E1F2E08EE701900D9242
:100C90008150E1F7E2ECF8E0DE01A350BF4F20E025
:100CA00030E0318320838D919C91119793838283CF
:100CB00012968D919C911397958384831782168247
:100CC0002F5F3F4F749614962133310551F76DE332
:100CD00076E05E010894A11CB11C21ECE22E21E01B
:100CE000F22EEC0EFD1E9FE7C92ED12CCC0EDD1E80
:100CF00000E010E084E1882E912CFB01118210822B
:100D0000F501819191915F01FB0193838283F7014A
:100D1000808191810197FB0195838483F701428152
:100D2000538141505040FB0157834683F601219186
:100D300031916F01FB0131872087889DD001899D0A
:100D4000B00D989DB00D1124AE53B74F16962D914E
:100D50003C911797FC01EE0FFF1FEE0FFF1FEE0FE8
:100D6000FF1F880F991FE80FF91FE20FF31FEE0F07
:100D7000FF1FEE53F74F118700872F5F3F4F1796E6
:100D80003C932E931697489DD001499DB00D589DD8
:100D9000B00D1124AE53B74F16968D919C911797B5
:100DA000FA0123E0EE0FFF1F2A95E1F7440F551FCC
:100DB000E40FF51FE80FF91FEE0FFF1FEE53F74F7B
:100DC00011870087019617969C938E9316970F5F55
:100DD0001F4F665F7F4F84E090E0E80EF91E0F33EF
:100DE000110509F08ACFC454DD4F0FB6F894DEBF69
:100DF0000FBECDBFCF91DF911F910F91FF90EF906C
:100E0000DF90CF90BF90AF909F908F9008952F92DA
:100E10003F924F925F926F927F928F929F92AF928A
:100E2000BF92CF92DF92EF92FF920F931F93DF93C7
:100E3000CF93CDB7DEB7C055D1400FB6F894DEBF23
:100E40000FBECDBFC35BDE4F99838883CD54D140A5
:100E5000CB01C15BDE4F59834883CF54D140BE01E3
:100E60006F5F7F4F0E94AE04C75BDE4F998388831C
:100E7000C954D140FE01B1962FEF3FEFCE018D57FF
:100E80009F4F21933193E817F907D9F7DF0120E24B
:100E90003EE4AF01CE018B519F4F2D933D93A81798
:100EA000B907D9F7C35BDE4F88819981CD54D14012
:100EB0000197FC01EE0FFF1FE40FF51F1182108256
:100EC0008D939C9301E010E0B3E82B2E312C2C0E77
:100ED0003D1EA5EE4A2E512C4C0E5D1E57C1D6016B
:100EE0002D913C9121503040220F331FE1E0F0E082
:100EF000EC0FFD1FE20FF31F80A191A18F5F9F4FA9
:100F0000D1F140E050E05101A20EB31E31C0BA0150
:100F1000660F771F640D751DDB01ED91FC91EE0FDF
:100F2000FF1FE20DF31D20813181F5018081918148
:100F30002817390714F4C80118C0DA011196AA0F4E
:100F4000BB1FA40DB51DFB019A01B8016150704093
:100F500006C08D919D91819391932F5F3F4FCB015F
:100F600026173707B4F3415050404F5F5F4F8C0155
:100F70004017510764F20894E11CF11C22E030E0B4
:100F8000C20ED31EC75BDE4F68817981C954D14040
:100F9000E616F7060CF4A3CF40E050E0E0C0FA01FB
:100FA000EE0FFF1FE40DF51DA080B180DA01119650
:100FB000AA0FBB1FA40DB51D9A01B8016150704066
:100FC00006C08D919D91819391932F5F3F4F26177E
:100FD0003707BCF37A010894E108F108A4E1B0E016
:100FE000AA9EC001AB9E900DBA9E900D1124FC01EB
:100FF000EE53F74F26813781C55BDE4F3983288357
:10100000CB54D140EAECCE2EE8E0DE2EC80ED91E3D
:101010008B01662477244501880C991C820C931C53
:1010200091C0D6012C9111963C91C901FC0143E07D
:10103000EE0FFF1F4A95E1F7880F991FE80FF91F80
:10104000E35CF94F80819181019709F474C0C90173
:10105000FC01A3E0EE0FFF1FAA95E1F7880F991F8F
:10106000E80FF91FE35CF94F648175816A157B0510
:1010700079F4C901FC0163E0EE0FFF1F6A95E1F707
:10108000880F991FE80FF91FE35CF94F668177819C
:10109000C901F90143E0EE0FFF1F4A95E1F7880F00
:1010A000991FE80FF91FE35CF94FD4014D915C9152
:1010B00080859185480F591FFB01EE0FFF1FE20D40
:1010C000F31D8081918148175907ACF50894E11C04
:1010D000F11C9801F8013197EE0FFF1FE40DF51D8B
:1010E000D801AA0FBB1FA40DB51D07C08081918137
:1010F00011969C938E9332971297215030402E1563
:101100003F05A4F7FB01EE0FFF1FD101AE0FBF1F7C
:101110004D935C9321E030E02C0F3D1FE20FF31F55
:10112000B1A2A0A2F701EE0FFF1FE40DF51D718320
:1011300060830F5F1F4F0894611C711C62E070E0B8
:10114000C60ED71EC55BDE4F88819981CB54D14036
:10115000681679060CF465CFA7014F5F5F4F401703
:1011600051070CF41CCF1016110684F08E010D5F90
:101170001F4F41E050E0EE24FF24BE016F5F7F4F20
:1011800093E8C92ED12CCC0EDD1E26C06E0108942A
:10119000C11CD11CEE24FF24F5CEF801A081B18141
:1011A0001197AA0FBB1FAC0DBD1D260F371FF901EC
:1011B000808191810197880F991F8C0D9D1D2D9124
:1011C0003C91DC018D919C91281739070CF47A0130
:1011D0004F5F5F4F0E5F1F4F9701220F331FC75B9B
:1011E000DE4FE881F981C954D1404E175F07ACF258
:1011F000620F731FDB014D915C9141505040109282
:10120000C1081092C0083E010894611C711C74E171
:10121000872E912C6DE0A62EB12CAC0EBD1E35E1B3
:10122000C32ED12CCC0EDD1EECC08091C008909155
:10123000C1084F5F5F4FFC01EE0FFF1FE751FA4FF0
:10124000518340834150504001969093C108809350
:10125000C008489DF001499DF00D589DF00D1124E6
:10126000D501EE53F74F84E101900D928150E1F7E3
:101270006B897C89D60120E030E01EC0ED90FC90A7
:101280001197F701EE0FFF1FC701880F991F880FF5
:10129000991F880F991FE80FF91FE35CF94F8481AC
:1012A00095818417950711F486819781129680178E
:1012B000910729F02F5F3F4F26173707FCF2209147
:1012C000C0083091C108D701AA0FBB1FC70173E046
:1012D000880F991F7A95E1F7A80FB91FA35CB94F42
:1012E00018968D919C911997F901EE0FFF1FE75108
:1012F000FA4F918380832F5F3F4F3093C108209333
:10130000C00814968D919C91159748175907C1F400
:101310002091C0083091C10812968D919C9113972D
:101320008C549F4FF901EE0FFF1FE751FA4F918345
:1013300080832F5F3F4F3093C1082093C00814C0B3
:101340008091C0089091C10812962D913C911397FD
:10135000FC01EE0FFF1FE751FA4F31832083019606
:101360009093C1088093C008E091C008F091C10833
:10137000EE0FFF1FE951FA4F80819181853B910566
:101380006CF0E091C008F091C108EE0FFF1FE95129
:10139000FA4F808191818856914019C0E091C00830
:1013A000F091C108EE0FFF1FE951FA4F8081918142
:1013B0008D549F4F74F4E091C008F091C108EE0F76
:1013C000FF1FE951FA4F8081918188599E4F918387
:1013D0008083E091C008F091C108A091C008B0914D
:1013E000C108AA0FBB1FA951BA4F8D919C9190952E
:1013F00081959F4FEE0FFF1FE951FA4F9183808334
:10140000A801FA01EE0FFF1FE60DF71D00A111A1C3
:10141000EFEF0F3F1E0709F008CF8091C0089091B1
:10142000C108FC01EE0FFF1FE751FA4FC35BDE4F0F
:1014300028813981CD54D140318320830196909306
:10144000C1088093C00800E010E027C0D801AA0FAF
:10145000BB1FA751BA4F2D913C911197E091C00845
:10146000F091C1083197E01BF10BEE0FFF1FE75120
:10147000FA4F8081918111969C938E93E091C008E0
:10148000F091C1083197E01BF10BEE0FFF1FE75100
:10149000FA4F318320830F5F1F4F8091C0089091D6
:1014A000C10862E070E00E94A1150617170774F2E8
:1014B00021E030E030C0F901EE0FFF1FE751FA4F95
:1014C0004081518180819181C15BDE4F688179814A
:1014D000CF54D140861B970B91838083808191816B
:1014E000843B91052CF0808191818856914009C000
:1014F000808191818D549F4F34F4808191818859EE
:101500009E4F918380832D5F3F4FC15BDE4F598398
:101510004883CF54D1408091C0089091C1082817CA
:1015200039074CF2C05BDE4F0FB6F894DEBF0FBE3A
:10153000CDBFCF91DF911F910F91FF90EF90DF9082
:10154000CF90BF90AF909F908F907F906F905F9063
:101550004F903F902F9008950F931F93CF93DF9359
:101560009C018B01EA0181E061E0A90122E030E009
:101570000E948B0181E064E0A80122E030E00E943B
:101580008B01D7FD04C081E067E0AE0106C04427AF
:1015900055274C1B5D0B81E067E023E030E00E94A3
:1015A0008B01DF91CF911F910F9108950F931F939E
:1015B000CF93DF939C01EB018A0182E061E0A901F6
:1015C00023E030E00E948B01D7FD04C082E065E09B
:1015D000AE0106C0442755274C1B5D0B82E065E039
:1015E00023E030E00E948B0117FD04C082E069E037
:1015F000A80106C044275527401B510B82E069E033
:1016000023E030E00E948B01DF91CF911F910F9179
:10161000089588E088B988E893E120E731E0F9018E
:101620003197F1F70197D9F718B888E893E120E7E7
:1016300031E0F9013197F1F70197D9F7089590E07A
:10164000A0E0B0E0BC01CD010E941F132FEE39ECE9
:1016500043E95FE30E94EB159B01AC0160E070E0A1
:1016600080E89FE30E9491112AE939EF4EE255E4A8
:101670000E94971020E030E040E251E40E94971071
:101680000E94CB12882777FD8095982F0E946D12BB
:101690000E94CB129B0183E06132780710F020E2B8
:1016A00033E0C9010895CF93DF9383E00E94630480
:1016B0008093D80582E00E9463048093D90581E07D
:1016C0000E9463048093DA058BE00E9463040E9409
:1016D0001F0B9093E8058093E7058091D80585312D
:1016E00018F0C4E6D0E002C0C0E0D0E08091D90597
:1016F000853108F02A968091DA05853108F0219627
:1017000081E06DE0AE0123E030E00E948B01CE016C
:10171000DF91CF9108952F923F924F925F926F92F7
:101720007F928F929F92AF92BF92CF92DF92EF9271
:10173000FF920F931F93DF93CF93CDB7DEB76497DC
:101740000FB6F894DEBF0FBECDBFDE011196E0E00C
:10175000F2E084E101900D928150E1F70E941804BB
:101760000E940E060E94D6000E94290188E088B9D6
:1017700088E893E120E731E0F9013197F1F701972B
:10178000D9F718B888E893E120E731E0F9013197FB
:10179000F1F70197D9F78824992481E0682E712CFC
:1017A00001E0202E312CEE24FF2418EC512EB8E05D
:1017B0004B2EF301EE0FFF1F21E030E02C0F3D1FF9
:1017C000E20FF31F00811181C101B801A4010E9441
:1017D0000707C101B801A4010E94AC0A5092280178
:1017E00050922A01CC24DD2464C282B1807F82B968
:1017F00088E99AE3E0E7F1E03197F1F70197D1F753
:10180000F601EE0FFF1FE751FA4F808191817601BB
:101810000894E11CF11C8701000F111F07511A4F9A
:10182000F80160817181A4010E94D60A82E06DE016
:1018300041E050E021E030E00E948B0182B1807FE6
:10184000866082B9F80180819181892B19F488E240
:1018500090E007C0F8018081918145972CF484E1E4
:1018600090E00E94A90359C01092DF051092E00594
:101870001092E1051092E2058091DF059091E0055C
:10188000A091E105B091E2058093DB059093DC0522
:10189000A093DD05B093DE058091DB059091DC051A
:1018A000A091DD05B091DE052091DF053091E005C6
:1018B0004091E1055091E2050997A105B10568F550
:1018C000293031054105510540F50E94530B8B30FD
:1018D0009105B1F08C3091054CF48130910581F087
:1018E0008A309105A9F0892B99F0D6CF8E369105D3
:1018F00061F08F36910561F08436910569F605C077
:101900005092280110922A01C7CF1092280102C0DC
:101910005092280150922A01BFCF50922801509234
:101920002A0182B1807F82B9F701EE0FFF1FE751D4
:10193000FA4F808191818B35910564F4808191818A
:10194000865A9F4F3CF080819181880F991F65E0F6
:1019500070E00BC0F701EE0FFF1FE751FA4F8081D7
:101960009181880F991F63E070E00E94A115F70133
:10197000EE0FFF1FE751FA4F80819181459724F0C8
:10198000CB010E94BE030BC0808191818C5E9F4F72
:1019900034F488279927861B970B0E94B703870189
:1019A000000F111F07511A4F0E94530B5C01F801E1
:1019B0008081918145972CF085E090E00E94BE03E4
:1019C0000AC0F801808191818C5E9F4F84F485E08C
:1019D00090E00E94B703C5016AE070E00E94A11583
:1019E000CB016AE070E00E94A1150197E9F65092E0
:1019F000280150922A0182E06DE042E050E021E0AF
:101A000030E00E948B01F701EE0FFF1FE751FA4F04
:101A100080819181880E991E25EB821691042CF00D
:101A200088E99EEF880E991E09C09CE489169FEFF5
:101A3000990624F4E8E6F1E08E0E9F1EF601EE0F03
:101A4000FF1FE751FA4F80819181F701EE0FFF1FD1
:101A5000E751FA4F60817181A4010E94D60A82E0A9
:101A60006DE043E050E021E030E00E948B01F601A0
:101A7000EE0FFF1FE351FA4F8081918173E0880FD1
:101A8000991F7A95E1F72091E7053091E80528172D
:101A900039070CF061C0A40182B1807F82B980E176
:101AA00097E2E0E7F1E03197F1F70197D1F786018E
:101AB000000F111F07511A4FF80180819181EE0C20
:101AC000FF1C29EE35E0E20EF31EF7016081718103
:101AD0000E94D60AF80100811181F601EE0FFF1F66
:101AE000E151FA4F0190F081E02D01501040319703
:101AF000ADE3B6E014962D913C9115972017310770
:101B000039F416968D919C9117978E179F0751F077
:101B10002E173F0761F416968D919C9117978017A9
:101B2000910729F421E030E011963C932E931A9608
:101B300038E0A33BB307F1F6CC0CDD1C89EE95E051
:101B4000C80ED91EF6012080318008946108710802
:101B500081E0E82EF12CF2C082E06DE044E050E03C
:101B600021E030E00E948B011092E3051092E40521
:101B70001092E5051092E60582B1807F866082B9F9
:101B80001092DF051092E0051092E1051092E20537
:101B90008091DF059091E005A091E105B091E2050B
:101BA0008093DB059093DC05A093DD05B093DE0503
:101BB0008091DB059091DC05A091DD05B091DE05FB
:101BC0002091DF053091E0054091E1055091E2055B
:101BD0000D97A105B10568F52D3031054105510579
:101BE00040F50E94530B8B309105B1F08C3091057C
:101BF0004CF48130910581F08A309105A9F0892B50
:101C000099F0D6CF8E36910561F08F36910561F04F
:101C10008436910569F605C05092280110922A0178
:101C2000C7CF1092280102C05092280150922A0179
:101C3000BFCF82E06DE045E050E021E030E00E945F
:101C40008B010E94530B8B30910549F18E36910523
:101C500031F18F36910519F18130910569F08230AB
:101C600091051CF4892B69F0ECCF8A30910549F07D
:101C70008436910531F70EC05092280110922A0146
:101C8000E0CF5092280150922A0182B1807F866075
:101C900082B9D7CF1092280150922A01D2CF509208
:101CA000280150922A0123E030E0C20ED31EEE2418
:101CB000FF248091C0089091C1080197C816D906E9
:101CC0000CF493CD970141E0E416F10409F436C019
:101CD000CC0CDD1C89EE95E0C80ED91EF6012080E3
:101CE000318082B1807F82B9F9E06F16710499F07A
:101CF00048B888E893E1E0E7F1E03197F1F7019720
:101D0000D1F718B888E893E1E0E7F1E03197F1F70F
:101D10000197D1F712C048B880E69AEEE0E7F1E00B
:101D20003197F1F70197D1F718B880E69AEEE0E71E
:101D3000F1E03197F1F70197D1F779010894611C2F
:101D4000711C2AE0621671040CF433CD80E090E03F
:101D500064960FB6F894DEBF0FBECDBFCF91DF9172
:101D60001F910F91FF90EF90DF90CF90BF90AF90B9
:101D70009F908F907F906F905F904F903F902F90AB
:101D80000895EF92FF920F931F937B018C0120E047
:101D900030E040E05FE40E943D1288238CF0C801EF
:101DA000B70120E030E040E05FE40E9439100E947B
:101DB000CB129B01AC01205030404040504806C03F
:101DC000C801B7010E94CB129B01AC01B901CA0145
:101DD0001F910F91FF90EF900895A0E0B0E0E3EF26
:101DE000FEE00C94B415DC012B01FA019C919230B9
:101DF00008F439C1EB018881823008F433C1943092
:101E000069F4843009F02FC111969C911197898152
:101E1000981709F428C1A0EDB4E025C1843009F475
:101E200021C18230A9F4923009F01DC19A01AD019F
:101E300088E0EA010990AE01E90109929E01815012
:101E4000C1F7E201898111969C918923818308C1A0
:101E5000923009F407C112962D903C901397EB0134
:101E60008A819B811496AD90BD90CD90DC901797A0
:101E7000EC80FD800E811F819101281B390BB90177
:101E800037FF04C066277727621B730B603271052A
:101E90000CF061C0121613066CF537014801062ECE
:101EA00004C096948794779467940A94D2F721E0BB
:101EB00030E040E050E004C0220F331F441F551FA4
:101EC0006A95D2F721503040404050402E213F21AA
:101ED00040235123211531054105510521F021E011
:101EE00030E040E050E079018A01E628F72808292F
:101EF00019293CC0232BD1F1260E371E350146018E
:101F0000062E04C096948794779467940A94D2F727
:101F100021E030E040E050E004C0220F331F441FB6
:101F2000551F6A95D2F721503040404050402A2139
:101F30003B214C215D21211531054105510521F041
:101F400021E030E040E050E059016A01A628B728BE
:101F5000C828D9280BC0821593052CF01C01AA248F
:101F6000BB24650103C0EE24FF24870111969C91D8
:101F7000D20111968C91981709F445C0992339F034
:101F8000A80197012A193B094C095D0906C0A60161
:101F900095012E193F09400B510B57FD08C01182C6
:101FA0003382228224833583468357831DC081E098
:101FB00081833382228288279927DC01821B930B3D
:101FC000A40BB50B84839583A683B7830DC0220F22
:101FD000331F441F551F24833583468357838281D3
:101FE0009381019793838283248135814681578130
:101FF000DA01C9010197A109B1098F5F9F4FAF4F66
:10200000BF4328F30BC0918333822282EA0CFB1C6E
:102010000C1D1D1DE482F5820683178383E08083F7
:10202000248135814681578157FF1AC0C901AA27EB
:1020300097FDA095BA2F81709070A070B0705695E2
:10204000479537952795822B932BA42BB52B84830B
:102050009583A683B783828193810196938382833C
:10206000DF0101C0D201CD01CDB7DEB7E2E10C94B2
:10207000D015A0E2B0E0EFE3F0E10C94C015698365
:102080007A838B839C832D833E834F835887E9E03B
:10209000EE2EF12CEC0EFD1ECE010196B7010E9432
:1020A000BC148E010F5E1F4FCE010596B8010E9431
:1020B000BC148A8991E089278A8BC701B801AE01D7
:1020C000475E5F4F0E94ED0E0E94E713A096E6E088
:1020D0000C94DC15A0E2B0E0E0E7F0E10C94C01550
:1020E00069837A838B839C832D833E834F835887B8
:1020F000F9E0EF2EF12CEC0EFD1ECE010196B7019A
:102100000E94BC148E010F5E1F4FCE010596B801D0
:102110000E94BC14C701B801AE01475E5F4F0E9428
:10212000ED0E0E94E713A096E6E00C94DC15A0E209
:10213000B0E0EDE9F0E10C94B41569837A838B8308
:102140009C832D833E834F835887CE010196BE0129
:10215000675F7F4F0E94BC14CE010596BE016F5E83
:102160007F4F0E94BC149985923088F08989823013
:10217000C8F0943019F4823051F404C0843029F44A
:10218000923081F480ED94E0C6C0923049F420E0B2
:102190009A858A89981321E02A87CE010996BBC0C7
:1021A000823049F420E09A858A89981321E02A8BAD
:1021B000CE014196B0C02D843E844F8458886D88EE
:1021C0007E888F88988CEE24FF248701AA24BB2464
:1021D000650140E050E060E070E0E0E0F0E0C10167
:1021E00081709070892BE9F0E60CF71C081D191D11
:1021F0009A01AB012A0D3B1D4C1D5D1D80E090E056
:10220000A0E0B0E0E614F7040805190520F481E029
:1022100090E0A0E0B0E0BA01A901480F591F6A1F81
:102220007B1FAA0CBB1CCC1CDD1C97FE08C081E0E8
:1022300090E0A0E0B0E0A82AB92ACA2ADB2A3196A9
:10224000E032F10549F0660C771C881C991C569405
:10225000479437942794C3CFFA85EA892B893C8920
:102260008B859C85280F391F2E5F3F4F17C0CA01F1
:1022700081709070892B61F016950795F794E7941B
:1022800080E090E0A0E0B0E8E82AF92A0A2B1B2BB6
:1022900076956795579547952F5F3F4F77FDE7CF29
:1022A0000CC0440F551F661F771F17FD4160EE0CD1
:1022B000FF1C001F111F21503040403090E0590793
:1022C00090E0690790E4790760F32B8F3C8FDB0186
:1022D000CA018F779070A070B07080349105A1050D
:1022E000B10561F447FD0AC0E114F10401051105CF
:1022F00029F0405C5F4F6F4F7F4F40781A8EFE177A
:1023000011F081E08A8F4D8F5E8F6F8F78A383E00D
:10231000898FCE0149960E94E713A096E2E10C94C2
:10232000D015A8E1B0E0E7E9F1E10C94BC156983B0
:102330007A838B839C832D833E834F835887B9E0B8
:10234000EB2EF12CEC0EFD1ECE010196B7010E9482
:10235000BC148E010F5E1F4FCE010596B8010E947E
:10236000BC142985223008F47EC03989323010F43B
:10237000B8017CC08A859A8989278A87243011F020
:10238000223031F4231709F06EC060ED74E06EC0A6
:10239000343039F41D861E861F86188A1C861B86DB
:1023A00004C0323021F484E08987B7015FC02B85F7
:1023B0003C858B899C89281B390B3C872B87ED84B6
:1023C000FE840F851889AD88BE88CF88D88CEA1422
:1023D000FB040C051D0540F4EE0CFF1C001F111F33
:1023E000215030403C872B8720E030E040E050E037
:1023F00080E090E0A0E0B0E460E070E0EA14FB046C
:102400000C051D0540F0282B392B4A2B5B2BEA18B5
:10241000FB080C091D09B695A79597958795EE0CB5
:10242000FF1C001F111F6F5F7F4F6F31710531F768
:10243000DA01C9018F779070A070B0708034910577
:10244000A105B10561F427FD0AC0E114F1040105FD
:10245000110529F0205C3F4F4F4F5F4F20782D87AB
:102460003E874F87588BBE01675F7F4FCB010E942D
:10247000E7136896EAE00C94D815A8E1B0E0E3E42D
:10248000F2E10C94C01569837A838B839C832D833E
:102490003E834F83588789E0E82EF12CEC0EFD1E19
:1024A000CE010196B7010E94BC148E010F5E1F4F32
:1024B000CE010596B8010E94BC148985823040F097
:1024C0008989823028F0C701B8010E94341501C003
:1024D0008FEF6896E6E00C94DC15A8E0B0E0E3E747
:1024E000F2E10C94BD159B01AC0183E08983DA0114
:1024F000C9018827B7FD83959927AA27BB27B82E3E
:10250000211531054105510519F482E089833AC04E
:102510008823A9F0203080E0380780E0480780E871
:10252000580729F460E070E080E09FEC30C0EE24B2
:10253000FF248701E21AF30A040B150B02C079018C
:102540008A018EE1C82ED12CDC82CB82ED82FE8204
:102550000F831887C801B7010E94981301971816B6
:10256000190684F4082E04C0EE0CFF1C001F111F76
:102570000A94D2F7ED82FE820F831887C81AD90A0F
:10258000DC82CB82BA82CE0101960E94E7132896A4
:10259000E9E00C94D915ACE0B0E0E1EDF2E10C9487
:1025A000C41569837A838B839C83CE010196BE0117
:1025B0006B5F7F4F0E94BC148D81823061F182304D
:1025C00050F1843021F48E81882351F12EC02F8167
:1025D000388537FD20C06E812F3131051CF0662310
:1025E000F9F023C08EE190E0821B930B29853A8598
:1025F0004B855C8504C056954795379527958A95F8
:10260000D2F76623B1F050954095309521953F4F14
:102610004F4F5F4F0EC020E030E040E050E009C077
:102620002FEF3FEF4FEF5FE704C020E030E040E0E6
:1026300050E8B901CA012C96E2E00C94E015A8E03C
:10264000B0E0E5E2F3E10C94BC157B018C0161156F
:1026500071058105910519F482E0898360C083E0EA
:1026600089838EE1C82ED12CDC82CB82ED82FE8262
:102670000F831887C801B7010E949813FC01319796
:10268000F7FF3BC0222733272E1B3F0B5701680162
:10269000022E04C0D694C794B794A7940A94D2F794
:1026A00040E050E060E070E081E090E0A0E0B0E069
:1026B00004C0880F991FAA1FBB1F2A95D2F7019744
:1026C000A109B1098E219F21A023B1230097A10563
:1026D000B10521F041E050E060E070E04A295B295B
:1026E0006C297D294D835E836F8378878EE190E02E
:1026F0008E1B9F0B9C838B8312C0309781F00E2E14
:1027000004C0EE0CFF1C001F111F0A94D2F7ED82CB
:10271000FE820F831887CE1ADF0ADC82CB821A82F0
:10272000CE0101960E94E7132896EAE00C94D81592
:10273000EF92FF920F931F937B018C0180E0E816CC
:1027400080E0F80681E0080780E0180788F48FEF42
:10275000E816F1040105110531F028F088E090E059
:10276000A0E0B0E017C080E090E0A0E0B0E012C0D0
:1027700080E0E81680E0F80680E0080781E01807AE
:1027800028F088E190E0A0E0B0E004C080E190E0B3
:10279000A0E0B0E020E230E040E050E0281B390B40
:1027A0004A0B5B0B04C016950795F794E7948A953E
:1027B000D2F7F701E852FB4F8081281B310941090C
:1027C0005109C9011F910F91FF90EF900895DF9279
:1027D000EF92FF920F931F93FC01E480F580068136
:1027E0001781D1808081823048F480E090E0A0E1C0
:1027F000B0E0E82AF92A0A2B1B2BA5C0843009F483
:102800009FC0823021F4EE24FF24870105C0E1142B
:10281000F1040105110519F4E0E0F0E096C06281D1
:1028200073819FEF623879070CF05BC022E83FEFBD
:10283000261B370B2A3131052CF020E030E040E038
:1028400050E02AC0B801A701022E04C07695679512
:10285000579547950A94D2F781E090E0A0E0B0E068
:1028600004C0880F991FAA1FBB1F2A95D2F7019792
:10287000A109B1098E219F21A023B1230097A105B1
:10288000B10521F081E090E0A0E0B0E09A01AB0159
:10289000282B392B4A2B5B2BDA01C9018F779070DB
:1028A000A070B07080349105A105B10539F427FFFF
:1028B00009C0205C3F4F4F4F5F4F04C0215C3F4F2A
:1028C0004F4F5F4FE0E0F0E02030A0E03A07A0E09B
:1028D0004A07A0E45A0710F0E1E0F0E079018A012C
:1028E00027C06038710564F5FB01E158FF4FD8013E
:1028F000C7018F779070A070B07080349105A105EA
:10290000B10539F4E7FE0DC080E490E0A0E0B0E04E
:1029100004C08FE390E0A0E0B0E0E80EF91E0A1FCB
:102920001B1F17FF05C016950795F794E79431967E
:1029300087E016950795F794E7948A95D1F705C037
:10294000EE24FF248701EFEFF0E06E2F67956627F6
:102950006795902F9F77D794DD24D7948E2F8695F7
:10296000492F462B582F5D29B701CA011F910F919E
:10297000FF90EF90DF900895FC01DB0140815181D1
:102980002281622F6F7770E0221F2227221F9381FE
:10299000892F880F822B282F30E0991F9927991FA4
:1029A00011969C93119721153105A9F541155105F3
:1029B0006105710511F482E037C082E89FEF13963C
:1029C0009C938E9312979A01AB0167E0220F331FFD
:1029D000441F551F6A95D1F783E08C930DC0220FD9
:1029E000331F441F551F12968D919C911397019789
:1029F00013969C938E931297203080E0380780E0E6
:102A0000480780E4580758F314962D933D934D934F
:102A10005C93179708952F3F310579F441155105BF
:102A20006105710519F484E08C93089564FF03C077
:102A300081E08C9312C01C9210C02F573040139627
:102A40003C932E93129783E08C9387E0440F551F9D
:102A5000661F771F8A95D1F7706414964D935D9326
:102A60006D937C93179708951F93DC01FB019C9154
:102A7000923008F447C08081823008F443C094301B
:102A800051F411961C91843099F58181682F70E082
:102A9000611B71093FC0843021F0923031F48230E3
:102AA000B9F18181882389F12DC011961C9111976C
:102AB0008230F1F081811817D9F412962D913C9152
:102AC0001397828193818217930794F0281739070F
:102AD000BCF014968D919D910D90BC91A02D2481F8
:102AE000358146815781281739074A075B0718F453
:102AF000112341F00AC082179307A407B50740F4D9
:102B0000112319F061E070E005C06FEF7FEF02C0A4
:102B100060E070E0CB011F910895AA1BBB1B51E13F
:102B200007C0AA1FBB1FA617B70710F0A61BB70B3D
:102B3000881F991F5A95A9F780959095BC01CD01E2
:102B4000089597FB092E07260AD077FD04D0E5DF0C
:102B500006D000201AF4709561957F4F0895F6F71E
:102B6000909581959F4F08952F923F924F925F923B
:102B70006F927F928F929F92AF92BF92CF92DF928D
:102B8000EF92FF920F931F93CF93DF93CDB7DEB7F2
:102B9000CA1BDB0B0FB6F894DEBF0FBECDBF199476
:102BA0002A88398848885F846E847D848C849B84DD
:102BB000AA84B984C884DF80EE80FD800C811B81EB
:102BC000AA81B981CE0FD11D0FB6F894DEBF0FBE1A
:102BD000CDBFED010895FA01EE0FFF1F30962105DC
:102BE000310599F16115710561F48038BFE39B07E8
:102BF00049F168949038810561F08038BFEF9B07F8
:102C000041F0992342F5FF3FE1053105210511F11E
:102C1000E8940894E795D901AA2329F4AB2FBE2F95
:102C2000F85FD0F310C0FF5F70F4A695E0F7F739B6
:102C300050F019F0FF3A38F49F779F930CD00F9023
:102C400007FC905808953EF049C060E070E080E8CD
:102C50009FE308954FE79F775F934F933F932F93A1
:102C6000D0D02F913F914F915F9161DA05C019F457
:102C70000EF02EC07DC032C061D0C8F39638C0F7C8
:102C800007F80F92E8942BE33AEA48EB5FE738D174
:102C90000F920F920F924DB75EB70F92F2D0E4EE03
:102CA000F0E01FD04F915F91EF91FF91E595EE1FFE
:102CB000FF1F49F0FE57E0684427EE0F441FFA95C6
:102CC000E1F74195550B64D00F9007FE58C0089569
:102CD00097F99F6780E870E060E008959FEF80ECCF
:102CE0000895DF93CF931F930F93FF92EF92DF929C
:102CF0007B018C01689405C0DA2EEF01FFD0FE0144
:102D0000E894A5912591359145915591AEF3EF0148
:102D100059D1FE019701A801DA9479F7DF90EF907D
:102D2000FF900F911F91CF91DF91089557FD90581B
:102D3000440F551F59F05F3F71F04795880F97FB7F
:102D4000991F61F09F3F79F0879508951216130639
:102D50001406551FF2CF4695F1DF08C01616170668
:102D60001806991FF1CF869571056105089408959D
:102D7000E894BB2766277727CB0197F908959B0135
:102D8000AC0160E070E080E89FE3CBCAA1CF6DC1E9
:102D9000D5DFE8F39923D9F3940F511DBBF391507C
:102DA000504094F059F0882332F0660F771F881F47
:102DB00091505040C1F79E3F510544F7880F911D37
:102DC0009695879597F908955F3FACF0983E9CF0F3
:102DD000BB27869577956795B79508F4B16093956D
:102DE000C1F7BB0F58F711F460FFE8CF6F5F7F4F5B
:102DF0008F4F9F4FE3CFBDCF0EF037C16FCF689499
:102E000067CF9CDFC8F39923D1F3C6F3DF93CF9349
:102E10001F930F93FF92C92FDD2788232AF0219754
:102E2000660F771F881FDAF720E030E040E85FEB9D
:102E30009FE3883920F0803E30F021968F774AD981
:102E4000ECE0F1E003C046D9E9E3F1E04ADF8B01B1
:102E5000BE01EC01FB2E6F5771097595771F880B2A
:102E6000990B3BDB28E132E741E35FE347D0AF2D2D
:102E70009801AE01FF900F911F91CF91DF91A2D0E9
:102E800010C1FA01DC01AA0FBB1F9B01AC01BF57A7
:102E900028F422273327442750781FC0B75188F4DD
:102EA000AB2F0024469537952795011CA395D2F3A7
:102EB000002069F0220F331F441FB395DAF30DD0C1
:102EC000D8C861307105A0E88A07B94630F49B0183
:102ED000AC016627772788279078309621F02083E9
:102EE0003183428353830895CED028F0D3D018F095
:102EF000952309F0EDCEF2CE11243BCF17DFA0F3DE
:102F0000959FD1F3950F50E0551F629FF001729F7E
:102F1000BB27F00DB11D639FAA27F00DB11DAA1F9D
:102F2000649F6627B00DA11D661F829F2227B00DEA
:102F3000A11D621F739FB00DA11D621F839FA00D75
:102F4000611D221F749F3327A00D611D231F849FC5
:102F5000600D211D822F762F6A2F11249F5750401C
:102F60008AF0E1F088234AF0EE0FFF1FBB1F661FB7
:102F7000771F881F91505040A9F79E3F510570F070
:102F8000A7CEF7CE5F3FECF3983EDCF386957795BE
:102F90006795B795F795E7959F5FC1F7FE2B880F6B
:102FA000911D9695879597F908956DD030F072D060
:102FB00020F031F49F3F11F41EF490CE0EF4E09512
:102FC000E7FB86CEE92FB2DE80F3BA1762077307FC
:102FD0008407950718F071F49EF5CACE0EF4E095BB
:102FE0000B2EBA2FA02D0B01B90190010C01CA01C3
:102FF000A0011124FF27591B99F0593F50F4503E6E
:1030000068F11A16F040A22F232F342F4427585F5F
:10301000F3CF469537952795A795F0405395C9F777
:103020007EF41F16BA0B620B730B840BBAF091502F
:10303000A1F0FF0FBB1F661F771F881FC2F70EC0CE
:10304000BA0F621F731F841F48F4879577956795A1
:10305000B795F7959E3F08F0B3CF9395880F08F08A
:103060009927EE0F9795879508959F3F31F09150DE
:1030700020F4879577956795B795880F911D96955C
:10308000879597F9089500240A94161617061806CE
:103090000906089500240A9412161306140605065C
:1030A0000895092E0394000C11F4882352F0BB0FED
:1030B00040F4BF2B11F460FF04C06F5F7F4F8F4F50
:0830C0009F4F0895F894FFCF23
:1030C800010007001D001A00120018000D001E0064
:1030D800100014001400150013001500140014004B
:1030E8001400140015001500140014001400130037
:1030F8001500120014001500140015001500140026
:103108001400120016001500150016001500150011
:1031180015001700150017001600170017001500F6
:1031280017001800180016001600160017001800DF
:1031380016001600150017001700150016001600D7
:103148001400160017001600190016002D002D0097
:103158002C005200AEFF4300340025001600070083
:10316800F9FFEAFFDBFFCCFFBDFFAEFF9FFF90FF3B
:1031780081FF72FF63FF54FFAC009D008E007F004B
:103188007000C4FFC4FF88FF88FF3C000000C4FF34
:1031980088FFB40000003C0088FFC4FFC4FF0000A3
:1031A8000000C4FF88FFB40078003C0088FFC4FF1B
:1031B800C4FF0000B4003C0088FF7800B40088FF1A
:1031C800C4FF00007800B400B400C4FF000088FF0A
:1031D80001000200010018000200030003000400BF
:1031E80004000500050006000600070007000800A7
:1031F8000800090009000A000A000B000B000C0077
:103208000C000D000D000E000E000F000F00100046
:103218001000110011001200120013001300140016
:1032280014001500150016001600170017001800E6
:103238000300190019001A001A001B001B001700D0
:1032480019001C001C001D001D001E001E001F0090
:103258001F001A0003001C002000070020001D00AA
:1032680007002300230022002200210021000B0078
:103278002100240024002500250026002600270020
:10328800270022000B0024002500280028000F003A
:103298002B000F002B002A0029002A002900130008
:1032A8002A002F002F002E002E002D002D002C00AC
:1032B8002C00290013002C002D00300030001700CE
:1032C8001A002D001D00220025002A0039001301D4
:1032D8003F00DB005400A90075007900A4005900E4
:1032E800D80041000F013B0048013F007D01580014
:1032F800AA017D00CF01A800E001DD00E901140169
:10330800E0014A01CA018001A901A9017D01CA01A0
:103318004801E4011101E901D600E501A100CD0150
:103328007400AC0153007E013F004D017400DF00C2
:1033380092001601720049019300A700D100A7006E
:10334800F100D900CE001001F00070008D01A4003A
:103358004D01A6002E017300AD01E1008D0115019C
:10336800500114013001DF00AE0149013101B701FC
:103378004E017E018E018201F100B501D6007E0169
:10338800F0004D012E01480191007E010F0113014B
:103398000000000000000000000102020303030314
:1033A80004040404040404040505050505050505CD
:1033B80005050505050505050606060606060606AD
:1033C8000606060606060606060606060606060695
:1033D800060606060606060607070707070707077D
:1033E8000707070707070707070707070707070765
:1033F8000707070707070707070707070707070755
:103408000707070707070707070707070707070744
:10341800070707070707070708080808080808082C
:103428000808080808080808080808080808080814
:103438000808080808080808080808080808080804
:1034480008080808080808080808080808080808F4
:1034580008080808080808080808080808080808E4
:1034680008080808080808080808080808080808D4
:1034780008080808080808080808080808080808C4
:1034880008080808080808080808080808080808B4
:083498000808080808080808EC
:00000001FF
