:100000000C9472000C9493000C9493000C94930045
:100010000C9493000C9493000C9493000C94930014
:100020000C9493000C9493000C9493000C94930004
:100030000C9493000C9493000C9493000C949300F4
:100040000C9493000C9493000C9493000C949300E4
:100050000C9493000C9493000C9493000C949300D4
:100060000C9493000C94CD000C9493000C9493008A
:100070000C9493000C9493000C9493000C949300B4
:100080000C9493000C9493000C9493000C949300A4
:100090000C9493000C9493000C9493000C94930094
:1000A0000C9493000C9493000C9493000C94930084
:1000B0000C9493000C9493000C9493000C94930074
:1000C0000C9493000C9493000C9493000C94F30004
:1000D0000C9493000C9493000C9493000C94930054
:1000E0000C94930011241FBECFEFD1E2DEBFCDBF31
:1000F00000E00CBF12E0A0E0B2E0EEE5F2E000E0CC
:100100000BBF02C007900D92A030B107D9F712E0E3
:10011000A0E0B2E001C01D92A130B107E1F70E945A
:1001200026010C942D010C940000DF93CF93CDB7E2
:10013000DEB7E1ECF0E01082E0ECF0E01082E2ECFF
:10014000F0E086E08083E4ECF0E08FE58083E5EC8E
:10015000F0E01082E1ECF0E088E98083CF91DF915C
:100160000895DF93CF93CDB7DEB7E1EDF0E01082D5
:10017000E0EDF0E01082E2EDF0E086E08083E4ED77
:10018000F0E08FE58083E5EDF0E01082E1EDF0E056
:1001900088E98083CF91DF9108951F920F920FB667
:1001A0000F9200905B000F9211248F93EF93FF93B7
:1001B000DF93CF93CDB7DEB7E6ECF0E0808180939C
:1001C0000002E6EDF0E0809100028083CF91DF91A4
:1001D000FF91EF918F910F9000925B000F900FBEF7
:1001E0000F901F9018951F920F920FB60F920090CC
:1001F0005B000F9211248F93EF93FF93DF93CF93C4
:10020000CDB7DEB7E6EDF0E0808180930002E6EC4A
:10021000F0E0809100028083CF91DF91FF91EF9118
:100220008F910F9000925B000F900FBE0F901F9068
:100230001895DF93CF93CDB7DEB7F8940E94950061
:100240000E94B1007894CF91DF910895DF93CF930E
:0E025000CDB7DEB70E941901FFCFF894FFCFA3
:00000001FF
