:100000000C94B3000C94D4000C94D4000C94D40041
:100010000C94D4000C94BC080C9497080C94D40055
:100020000C94D4000C94D4000C94D4000C94D40000
:100030000C94D4000C94D4000C94D4000C94D400F0
:100040000C94D4000C94D4000C94D4000C94D400E0
:100050000C94D4000C94D4000C94D4000C94D400D0
:100060000C94D4000C94D4000C94D4000C94D400C0
:100070000C94D4000C94D4000C94D4000C94D400B0
:100080000C94D4000C94D4000C94D4000C94D400A0
:100090000C94D4000C94D4000C94D4000C94D40090
:1000A0000C94D4000C94D4000C94D4000C94D40080
:1000B0000C94D4000C94D4000C94D4000C94D40070
:1000C0000C94D4000C94D4000C94D4000C94D40060
:1000D0000C94D4000C94D4000C94D4000C94D40050
:1000E0000C94D40007634236B79BD8A71A396856D8
:1000F00018AEBAAB558C1D3CB7CC5763BD6DEDFD4A
:10010000753EF6177231BF000000803F0800000006
:10011000BE922449123EABAAAA2ABECDCCCC4C3EFC
:1001200000000080BEABAAAAAA3E00000000BF00EB
:100130000000803F0000000000084178D3BB4387E7
:10014000D1133D190E3CC3BD4282AD2B3E68EC82FB
:1001500076BED98FE1A93E4C80EFFFBE01C4FF7F80
:100160003F000000000011241FBECFEFD1E2DEBF30
:10017000CDBF00E00CBF16E0A0E0B2E0E0E7FCE29B
:1001800000E00BBF02C007900D92AE35B107D9F762
:1001900014E1AEE5B6E001C01D92AE35B107E1F75E
:1001A0000E94E6080C9436160C94000086E69EE049
:1001B000FC013197F1F74098419840E348B9429AE1
:1001C00020E038E4F9013197F1F74298FC013197CA
:1001D000F1F74098419848B9429AF9013197F1F7FF
:1001E0004298FC013197F1F74098419848B9429AFA
:1001F000F9013197F1F742980197F1F7409841984A
:1002000080E288B9429AC9010197F1F742980895AE
:1002100098B19F7098B928B1982F907F922B98B978
:1002200040984198429A20E038E4F9013197F1F77B
:10023000429898B19F7098B998B18295807F982B19
:1002400098B940984198429AC9010197F1F74298AC
:10025000089586E69EE00197F1F788E20E94080182
:1002600081E00E94080186E00E9408018EE00E9461
:10027000080180E80E940801089598B19F7098B91C
:1002800028B1982F907F922B98B9409A4198429A22
:1002900020E038E4F9013197F1F7429898B19F7066
:1002A00098B998B18295807F982B98B9409A4198D7
:1002B000429AC9010197F1F74298089580E80E9497
:1002C00008010895CF93DF93EC0103C00E943D0124
:1002D000219688818823D1F7DF91CF9108958230CC
:1002E00069F0833018F48130A9F405C0833049F0F7
:1002F000843081F40BC0862F815805C0862F81542D
:1003000002C0862F8D560E9408010895862F8D52B7
:100310000E94080108950F931F93CF93DF938A01E2
:10032000E901882311F0662319F40E945E0102C0DE
:100330000E946F01C530D10571F4C80160E177E218
:100340000E94D815CB01C0969093740680937306D3
:100350000E943D0105C0C430D10511F080E016C0F7
:10036000C80168EE73E00E94D815CB016093E909DB
:100370009093EA096AE070E00E94D815C0969093C5
:10038000E5108093E4100E943D0181E0C330D10567
:1003900021F0813011F080E016C0C80164E670E001
:1003A0000E94D815CB016093E9099093EA096AE0AD
:1003B00070E00E94D815C0969093DF108093DE10F5
:1003C0000E943D0181E0C230D10521F0813011F061
:1003D00080E016C0C8016AE070E00E94D815CB0129
:1003E0006093E9099093EA096AE070E00E94D815E9
:1003F000C09690936B0D80936A0D0E943D0181E041
:10040000C130D10511F0813061F4C8016AE070E0BB
:100410000E94D815C0969093E3108093E2100E943A
:100420003D0126971CF085E40E943D01DF91CF91AC
:100430001F910F9108954F925F926F927F928F92CA
:100440009F92AF92BF92CF92DF92EF92FF920F9363
:100450001F93DF93CF93CDB7DEB7CC5BD2400FB6FF
:10046000F894DEBF0FBECDBFDE01A350BF4FE9E958
:10047000F5E084EC01900D928150E1F7DE01AF537D
:10048000BE4FEDE9F4E08CEF01900D928150E1F761
:10049000DE011196EFE1F4E08EE701900D928150BC
:1004A000E1F7DE01A158BF4FE1EAF3E08EE70190EA
:1004B0000D928150E1F7DE01A350BF4FECE6FDE065
:1004C0009E012F533E4F8D919C9111979183808374
:1004D00012968D919C911397938382831582148237
:1004E00014967296A217B30771F707E716E06D012D
:1004F0004E010894811C911C8FE7A82EB12CAC0EE4
:10050000BD1EEE24FF24B3E06B2E712CA2E04A2E18
:10051000512CF80115821482F60140815181F801B5
:1005200051834083F60162817381F8017383628392
:10053000F40180819181F80197838683F501208100
:100540003181F801358724879A01220F331FD901A1
:10055000E3E0AA0FBB1FEA95E1F7A20FB31FA4596E
:10056000B24F14962D913C911597FA01EE0FFF1F93
:10057000EE0FFF1FEE0FFF1FE40FF51FE20FF31F3B
:10058000EE0FFF1FE459F24FF782E6822F5F3F4FD5
:1005900015963C932E9314979B01220F331FD9017C
:1005A000E3E0AA0FBB1FEA95E1F7A20FB31FA4591E
:1005B000B24F14962D913C911597FB0153E0EE0F2D
:1005C000FF1F5A95E1F7E60FF71FE20FF31FEE0F3B
:1005D000FF1FE459F24FF782E6822F5F3F4F1596D7
:1005E0003C932E9314976AE070E00E94EC15892BDF
:1005F00031F4F801718660867386628605C0F80161
:1006000071866086538642860894E11CF11C025F65
:100610001F4F84E090E0C80ED91EE2E0F0E08E0E9D
:100620009F1EAE0EBF1EFFE3EF16F10409F071CF5F
:100630001092E1101092E01010927606109275065A
:10064000C454DD4F0FB6F894DEBF0FBECDBFCF91BF
:10065000DF911F910F91FF90EF90DF90CF90BF90AF
:10066000AF909F908F907F906F905F904F90089584
:10067000FC0183E087838381882391F083E090E00D
:100680009093E1108093E01013828091E01090919C
:10069000E110181619060CF4FFCF81E08783089546
:1006A000FFCFFC01138282E08783FFCFFC01108221
:1006B0001092F7091092F60911821092F509109222
:1006C000F409128221E023838CE084838CE090E0A3
:1006D0009093EF098093EE0915821092ED09109224
:1006E000EC09168227830895FC0183818130D9F4B7
:1006F00084818093EE091092EF0981818093F4093F
:100700001092F5098091F60980832681222359F001
:1007100080919F039091A003821B91099093A00365
:1007200080939F0316820895FC0187818130E1F454
:1007300080818093F6091092F70985818093EC09F6
:100740001092ED098091EE0984832281222389F0A1
:1007500080919F039091A003821B91099093A00325
:1007600080939F0312820895823019F4CF010E9472
:10077000380308956093F4097093F509FC016183CF
:1007800008956093EC097093ED09FC016583089569
:10079000CF92DF92EF92FF920F931F93FC01718330
:1007A0006083538342833583248317830683F186D2
:1007B000E086D386C2861F910F91FF90EF90DF9065
:1007C000CF9008959C01FB01893191053CF42150A3
:1007D00030403183208321E030E0CFC08D3191055E
:1007E00009F465C08E3191058CF48A31910561F16F
:1007F0008B31910524F489319105C1F41AC08B31F4
:100800009105C9F18C31910589F442C08F31910570
:1008100009F473C08F3191050CF460C080329105EA
:1008200009F47AC08132910509F491C020E030E0EA
:10083000A4C01182108288E190E093838283358383
:1008400024838AE190E091C088E190E091838083E5
:1008500089E190E0938382838BE190E095838483A8
:100860008CE190E0978386838DE190E0918780878B
:100870008EE190E067C084E090E0918380833383D1
:1008800022838CE190E0958384838FE190E06DC0BA
:1008900088E090E09183808380E290E0938382837C
:1008A00081E290E09583848382E290E05EC080E202
:1008B00090E09183808381E290E09383828383E25E
:1008C00090E09583848384E290E09783868385E239
:1008D00090E09187808786E290E034C08CE090E0E1
:1008E0009183808383E290E09383828384E290E02B
:1008F0009583848387E290E038C080E190E0918323
:10090000808388E290E09383828389E290E09583FC
:1009100084838AE290E029C088E290E0918380831A
:1009200089E290E0938382838BE290E095838483D5
:100930008CE290E0978386838DE290E091878087B8
:100940008EE290E09387828726E030E016C084E153
:1009500090E0918380838BE290E0938382838CE2AA
:1009600090E0958384838FE290E09783868311865D
:1009700010861386128624E030E0C90108959C0198
:10098000880F991FFC0143E0EE0FFF1F4A95E1F726
:10099000E81BF90BE958F94F0190F081E02DE617BB
:1009A000F70781F4C901880F991FFC0123E0EE0FBE
:1009B000FF1F2A95E1F7E81BF90BE958F94F028070
:1009C000F381E02DCF0108959A01FA013196EE0FDF
:1009D000FF1FE80FF91FD901AA0FBB1FA80FB91FEE
:1009E0006150704006C0819191918D939D932F5FCE
:1009F0003F4F26173707BCF30895CF93DF93EC01E1
:100A0000FB013197EE0FFF1FEC0FFD1FDB01AA0F5B
:100A1000BB1FAC0FBD1F07C08081918111969C93B5
:100A20008E93329712976150704064177507A4F740
:100A3000440F551FC40FD51F39832883DF91CF91F1
:100A400008952F923F924F925F926F927F928F9272
:100A50009F92AF92BF92CF92DF92EF92FF920F934D
:100A60001F93DF93CF93CDB7DEB7CA53D1400FB6F4
:100A7000F894DEBF0FBECDBF8A0148E550E0649F09
:100A80004001659F900C749F900C1124880E991E54
:100A9000D40113963C932E931297C901BE016F5F48
:100AA0007F4F0E94E203CB5CDE4F99838883C5535E
:100AB000D140FE013D962FEF3FEFCE0181599F4F70
:100AC00021933193E817F907D9F72FEF3FE7AF01EB
:100AD000CE018F529F4F21933193E817F907D9F731
:100AE00011830083000F111F040F151FF8011182DD
:100AF000108201E010E051ED452E512C4C0E5D1E90
:100B00004FE6242E312C2C0E3D1E4CC1D6018D916A
:100B10009C918F5F9F4F89F1A20160E070E02AC035
:100B2000FA01A081B181AA0FBB1FA20DB31DF5016F
:100B300080819181880F991F820D931D2D913C9189
:100B4000DC018D919C912817390784F001501040E9
:100B5000DA0112969B01FA0106C08D919D91819355
:100B600091932F5F3F4F20173107BCF36F5F7F4F8B
:100B70004E5F5F4F601771079CF20894E11CF11CF7
:100B8000E2E0F0E0CE0EDF1EAE0EBF1ECB5CDE4F0D
:100B900028813981C553D140E216F3060CF4B6CF53
:100BA00040E050E0E8C0FA01EE0FFF1FE40DF51D34
:100BB0006080718001501040DA011196AA0FBB1FAE
:100BC000A40DB51D9A0106C08D919D9181939193BD
:100BD0002F5F3F4F20173107BCF37A010894E108DB
:100BE000F108C301880F991F9C0153E0220F331FA6
:100BF0005A95E1F7280F391FF901E459F24F448162
:100C00005581C95CDE4F59834883C753D14042E7C1
:100C1000C42E4DE0D42EC20ED31EAA24BB24D10173
:100C2000A80FB91FC75CDE4FB983A883C953D14051
:100C300095C0F60120813181C901880F991FFC01FF
:100C4000A3E0EE0FFF1FAA95E1F7E81BF90BE958A7
:100C5000F94F84819581019709F479C0C901880F02
:100C6000991FFC0163E0EE0FFF1F6A95E1F7E81B97
:100C7000F90BE958F94F608171816615770579F4B0
:100C8000C901880F991FFC0143E0EE0FFF1F4A9531
:100C9000E1F7E81BF90BE958F94F62817381C9014B
:100CA000880F991FFC0123E0EE0FFF1F2A95E1F743
:100CB000E81BF90BE958F94FC75CDE4FA881B981F1
:100CC000C953D1404D915C9184859585480F591F3A
:100CD000FB01EE0FFF1FE20DF31D8081918148178C
:100CE0005907ACF50894E11CF11C9801F801319703
:100CF000EE0FFF1FE40DF51DD801AA0FBB1FA40DB9
:100D0000B51D07C08081918111969C938E93329777
:100D10001297215030402E153F05A4F7FB01EE0F2E
:100D2000FF1FD101AE0FBF1F4D935C9321E030E058
:100D30002C0F3D1FE20FF31F758664860F5F1F4F58
:100D4000F701EE0FFF1FE40DF51D7183608308941A
:100D5000A11CB11C42E050E0C40ED51EC95CDE4FA0
:100D600088819981C753D140A816B9060CF461CF88
:100D7000A7014F5F5F4F401751070CF414CF1016B7
:100D8000110684F0A3E0EA2EF12CEC0EFD1E61E0CA
:100D900070E0CC24DD248E010F5F1F4FAE0141595E
:100DA0005F4F2BC05E010894A11CB11CFDE0CF2E4B
:100DB000D12CCC0EDD1EEE24FF24E8CEF701A0815D
:100DC000B181AA0FBB1FA40FB51F200F311FF9015E
:100DD00080819181880F991F840F951F2D913C91DF
:100DE000DC018D919C91281739070CF46B016F5F22
:100DF0007F4FE2E0F0E0EE0EFF1E9601220F331F60
:100E0000CB5CDE4F88819981C553D1406817790743
:100E1000ACF2020F131FD8012D913C91F4013183E4
:100E20002083C901880F991F480F591FDA018D913E
:100E30009C9195838483EA5AFF4F11821082BE01F0
:100E40006F5F7F4FDF010FC08D919C911197FC0167
:100E5000EE0FFF1FE80DF91D3783268301961196CB
:100E60009C938E939A01F901EE0FFF1FE60FF71F77
:100E700044855585EFEF4F3F5E0731F7C65CDE4F87
:100E80000FB6F894DEBF0FBECDBFCF91DF911F919B
:100E90000F91FF90EF90DF90CF90BF90AF909F9019
:100EA0008F907F906F905F904F903F902F9008951C
:100EB000982F883018F088E080937B0097709062BC
:100EC00090937C0080917A00806480937A00809176
:100ED0007A0084FFFCCF8091790090917A00906134
:100EE00090937A0010927B0008950F931F93182F10
:100EF000062F842F0E945807482F8093EB09812FDB
:100F0000602F50E023E030E00E948B011F910F9191
:100F10000895F89481B18F6081B982B1807F82B9E0
:100F2000EAE0F1E0808188618083EBE0F1E080819C
:100F3000886180836C98749A6D98759A3B9A4398EF
:100F400087B1876F87B988B1807888B910BA11BA2C
:100F50001092070110920801A1E2B1E01C922FEF5C
:100F60002093250181E08093240110922901209390
:100F7000280110922B0120932A01ECE2F1E08FEF7F
:100F800090E09183808310922D01208389EA8093E1
:100F900020018BE08C93F894EAE6F0E08081826097
:100FA0008083EC9A7894F894EAE6F0E08081886097
:100FB0008083ED9A7894EAE7F0E0108210927B004B
:100FC00010927C0086E8808380E880BF7894089542
:100FD00088E088B9089518B8089592B1907F8F700D
:100FE000892B82B9089582B1807F866082B9089585
:100FF00082B1807F896082B9089582B1807F8560E7
:1010000082B9089582B1807F8A6082B9089582B1E1
:10101000807F846082B9089582B1807F826082B9C6
:10102000089582B1807F82B90895809328016093EA
:101030002A010895EF92FF920F931F939C0197FD51
:1010400005C082B1807F8A6082B907C082B1807F8B
:10105000856082B9309521953F4FB901882777FD8A
:101060008095982F0E941F1328E431EE42E850E447
:101070000E9484120E94F1127B018C01109265067D
:1010800010926606109267061092680680916506B7
:1010900090916606A0916706B091680680936106FC
:1010A00090936206A0936306B09364061EC02091DD
:1010B000650630916606409167065091680681E0AA
:1010C00061E0A90123E030E00E948B0120916106DC
:1010D00030916206409163065091640682E061E0BF
:1010E000A90123E030E00E948B0180916506909178
:1010F0006606A0916706B0916806E816F9060A0729
:101100001B0768F08091610690916206A0916306CA
:10111000B0916406E816F9060A071B0740F682B18B
:10112000807F82B91F910F91FF90EF9008951F92D9
:101130000F920FB60F9211248F939F93AF93BF938B
:101140008091610690916206A0916306B091640659
:101150000196A11DB11D8093610690936206A09334
:101160006306B0936406BF91AF919F918F910F90EA
:101170000FBE0F901F9018951F920F920FB60F92EF
:1011800011248F939F93AF93BF93809165069091A5
:101190006606A0916706B09168060196A11DB11D73
:1011A0008093650690936606A0936706B0936806E1
:1011B000BF91AF919F918F910F900FBE0F901F9095
:1011C000189580E090E00895089508950E94890799
:1011D0000E94290182E065E049E750E023E030E029
:1011E0000E948B0186EA9FEF0E941A0880E197E235
:1011F00020E731E0F9013197F1F70197D9F782EE55
:101200009FEF0E941A0880E197E220E731E0F901A0
:101210003197F1F70197D9F788E99EEF0E941A08F4
:1012200080E197E220E731E0F9013197F1F701978A
:10123000D9F78CE390E00E941A0880E197E220E75A
:1012400031E0F9013197F1F70197D9F782B1807F49
:1012500082B980E090E008950F931F938B012DB722
:101260003EB7285030400FB6F8943EBF0FBE2DBF9A
:10127000EDB7FEB7319620E032E0ADB7BEB71296BB
:101280003C932E93119742831382958384837783B3
:1012900066830E94BD0F1093F7090093F6092DB7DE
:1012A0003EB7285F3F4F0FB6F8943EBF0FBE2DBF2D
:1012B0001F910F91089500D000D0EDB7FEB7319681
:1012C00028E132E0ADB7BEB712963C932E9311974A
:1012D00062831382958384830E94BD0F82B1807FD5
:1012E00082B98DB79EB706960FB6F8949EBF0FBE13
:1012F0008DBF089500D00F92EDB7FEB7319624E36D
:1013000032E0ADB7BEB712963C932E93119782830D
:1013100013820E94BD0F82B1807F866082B90F90D8
:101320000F900F900F9008952F923F924F925F92DF
:101330006F927F928F929F92AF92BF92CF92DF92E5
:10134000EF92FF920F931F93DF93CF93CDB7DEB74A
:10135000CE55D0400FB6F894DEBF0FBECDBF6F960E
:101360009FAF8EAF6F978091F6099091F7096D96B8
:101370009FAF8EAF6D97E091EE09F091EF096B96FC
:10138000FFAFEEAF6B9720909F033090A0030894BF
:10139000210831082101440C551C8BE893E0480ECC
:1013A000591E6624772488249924AA24BB24CC249B
:1013B000DD24CEC000D00F9284E492E0EDB7FEB7FA
:1013C00092838183F20180819181EDB7FEB794838E
:1013D00083830E94BD0F0F900F900F900F90F2012A
:1013E000208131818AEF99E0B3016D964EAD5FADFA
:1013F0006D970E942105F2012081318186EE90E1F6
:10140000B4016B964EAD5FAD6B970E94210500D085
:101410000F9284E592E0EDB7FEB792838183E8E511
:10142000F0E06E9E70016F9EF00C7E9EF00C112419
:101430008AEF99E0E80EF91EF701848195818A0D03
:101440009B1DEDB7FEB7948383830E94BD0F89E691
:1014500092E0EDB7FEB792838183E8E5F0E08E9EDF
:1014600080018F9E100D9E9E100D11240A511F4E5B
:10147000F801848195818C0D9D1DEDB7FEB7948395
:1014800083830E94BD0FF701448155814A0D5B1D86
:10149000F801248135812C0D3D1D0F900F900F9088
:1014A0000F902417350734F14C155D051CF4A60187
:1014B0004F5F5F4F93012F5F3F4F88E590E0689E3D
:1014C000F001699EF00D789EF00D1124E650F64F64
:1014D000EA5AFF4F80819181E655F04018161906AF
:1014E00034F4868197816D969FAF8EAF6D973901E9
:1014F000960125C02A153B051CF495012F5F3F4F2F
:10150000A4014F5F5F4F88E590E0889EF001899EBF
:10151000F00D989EF00D1124EA51FF4EEA5AFF4F4C
:1015200080819181E655F0401816190634F48681C1
:1015300097816B969FAF8EAF6B974A01A501089478
:1015400021083108EEEFFFEF4E0E5F1E5A016901D0
:1015500037FE30CF6301D594C7944AEF59E0089421
:101560006108710888E590E0689E9001699E300DE1
:10157000789E300D11240894611C711C240F351FB6
:1015800060E070E05E010894A11CB11C1BC0D50195
:10159000FA0188E501900D928150E1F7DA01F90135
:1015A00088E501900D928150E1F7D901F50188E5B8
:1015B00001900D928150E1F76F5F7F4F485A5F4F66
:1015C000285530406C157D0514F36401D594C794FB
:1015D00046EE50E108948108910888E590E0889EE5
:1015E0009001899E300D989E300D11240894811C25
:1015F000911C240F351F60E070E05E010894A11C6F
:10160000B11C1BC0D501FA0188E501900D928150F3
:10161000E1F7DA01F90188E501900D928150E1F7D7
:10162000D901F50188E501900D928150E1F76F5FD6
:101630007F4F485A5F4F285530406C157D0514F395
:1016400070927606609275069092E1108092E0109A
:101650006F968EAD9FAD6F970E945103C25ADF4FB8
:101660000FB6F894DEBF0FBECDBFCF91DF911F91B3
:101670000F91FF90EF90DF90CF90BF90AF909F9031
:101680008F907F906F905F904F903F902F90089534
:101690002F923F924F925F926F927F928F929F9282
:1016A000AF92BF92DF92EF92FF920F931F93CF936F
:1016B000DF93D82EEB010E947A0948E5E42EF12C45
:1016C0003CE2A32EB12C20E0222E22E0322E98E81C
:1016D000492E92E0592E86E0682E712C6C0E7D1EEC
:1016E00022C101979093E1108093E010CAC0CE010F
:1016F0000E9494032091E0103091E1102E9DF001A2
:101700002F9DF00D3E9DF00D1124E45CFE4E808176
:1017100091810197918380838090EE099090EF09E9
:101720002A9DF0012B9DF00D3A9DF00D1124E80F3C
:10173000F91FEE0FFF1FEA51FF4E2681378180917E
:10174000F6099091F7092817390709F04CC000D025
:1017500000D0EDB7FEB7319688E192E0ADB7BEB7E5
:1017600012969C938E931197D2821382AEE7B2E0C9
:10177000B583A4830E94BD0F82B1807F82B9EDB78B
:10178000FEB736960FB6F894FEBF0FBEEDBF03C08E
:10179000CE010E9494038091E0109091E1108E9D03
:1017A000D0018F9DB00D9E9DB00D1124A45CBE4E46
:1017B0008A9DF0018B9DF00D9A9DF00D11248D9165
:1017C0009C91E80FF91FEE0FFF1FEA51FF4E268193
:1017D00037818091EE099091EF0928173907C1F2FE
:1017E0008D2D0E947A098091E0109091E1108E9DDC
:1017F000D0018F9DB00D9E9DB00D1124A45CBE4EF6
:101800008A9DF0018B9DF00D9A9DF00D11248D9114
:101810009C91E80FF91FEE0FFF1FEA51FF4E8681E2
:1018200097819093EF098093EE09CE010E94940373
:101830000091EE091091EF098DB79EB708970FB68A
:10184000F8949EBF0FBE8DBFEDB7FEB73196ADB712
:10185000BEB712963C922E921197D2821382958235
:101860008482178306830E94BD0F1093F7090093AB
:10187000F609EDB7FEB738960FB6F894FEBF0FBE67
:10188000EDBF8091E0109091E1108E9DF0018F9D51
:10189000F00D9E9DF00D1124E45CFE4E808191813F
:1018A000181619060CF423CF03C0CE010E9494032E
:1018B0008091E0109091E1108E9DF0018F9DF00DD0
:1018C0009E9DF00D1124EA51FF4E22813381E0915B
:1018D0009F03F091A003EE0FFF1FE757FC4F80819D
:1018E00091812817390709F700D00F92ADB7BEB71D
:1018F00012965C924E92119714963C932E931397E6
:101900000E94BD0F80919F039091A0030197909337
:10191000A00380939F03F30180818F5F80830F90EA
:101920000F900F900F908091E0109091E110181699
:1019300019060CF4D6CE82E090E09093ED098093E6
:10194000EC0900D000D0EDB7FEB7319688E192E007
:10195000ADB7BEB712969C938E931197D282138225
:1019600085E992E0958384830E94BD0F82B1807FD8
:1019700082B9EDB7FEB736960FB6F894FEBF0FBE2C
:10198000EDBF81E090E0DF91CF911F910F91FF902B
:10199000EF90DF90BF90AF909F908F907F906F906F
:1019A0005F904F903F902F9008952F923F924F92CB
:1019B0005F926F927F928F929F92AF92BF92CF92DF
:1019C000DF92FF920F931F93CF93DF93F82EEB01DB
:1019D0000E947A0998E5C92ED12C8CE2A82EB12C50
:1019E00000E0202E02E0302E1FE9412E12E0512EA1
:1019F000B2E06B2E712C6C0E7D1E10C1019790937E
:101A0000760680937506B8C0019791838083809095
:101A1000F6099090F7092A9DF0012B9DF00D3A9D53
:101A2000F00D1124E80FF91FEE0FFF1FE650F64FDF
:101A3000268137818091EE099091EF0928173907A7
:101A400009F04CC000D000D0EDB7FEB7319688E168
:101A500092E0ADB7BEB712969C938E931197F28227
:101A60001382AEE7B2E0B583A4830E94BD0F82B1BA
:101A7000807F82B9EDB7FEB736960FB6F894FEBFF9
:101A80000FBEEDBF03C0CE010E94740380917506A6
:101A9000909176068C9DD0018D9DB00D9C9DB00DD2
:101AA0001124A05BB54F8A9DF0018B9DF00D9A9D8E
:101AB000F00D11248D919C91E80FF91FEE0FFF1F7F
:101AC000E650F64F268137818091EE099091EF091B
:101AD00028173907C1F28F2D0E947A098091750667
:101AE000909176068C9DD0018D9DB00D9C9DB00D82
:101AF0001124A05BB54F8A9DF0018B9DF00D9A9D3E
:101B0000F00D11248D919C91E80FF91FEE0FFF1F2E
:101B1000E650F64F868197819093F7098093F609F6
:101B2000CE010E9474030091F6091091F7098DB758
:101B30009EB708970FB6F8949EBF0FBE8DBFEDB746
:101B4000FEB73196ADB7BEB712963C922E92119762
:101B5000F282138295828482178306830E94BD0FCE
:101B60001093F7090093F609EDB7FEB738960FB654
:101B7000F894FEBF0FBEEDBF20917506309176063A
:101B80002C9DF0012D9DF00D3C9DF00D1124E05B8E
:101B9000F54F80819181181619060CF435CF03C0DA
:101BA000CE010E94740380917506909176068C9DFB
:101BB000F0018D9DF00D9C9DF00D1124E650F64F27
:101BC00022813381E0919F03F091A003EE0FFF1F6C
:101BD000E757FC4F808191812817390709F700D01A
:101BE0000F92ADB7BEB712965C924E9211971496B3
:101BF0003C932E9313970E94BD0F80919F03909169
:101C0000A00301979093A00380939F03F301808129
:101C10008F5F80830F900F900F900F9080917506CB
:101C200090917606181619060CF4E8CE82E090E042
:101C30009093F5098093F40900D000D0EDB7FEB77A
:101C4000319688E192E0ADB7BEB712969C938E9321
:101C50001197F282138285E992E0958384830E9432
:101C6000BD0F82B1807F82B9EDB7FEB736960FB651
:101C7000F894FEBF0FBEEDBF81E090E0DF91CF9101
:101C80001F910F91FF90DF90CF90BF90AF909F90EA
:101C90008F907F906F905F904F903F902F9008951E
:101CA00090E0A0E0B0E0BC01CD010E941D132FEE3A
:101CB00039EC43E95FE30E940E149B01AC0160E044
:101CC00070E080E89FE30E9484122AE939EF4EE237
:101CD00055E40E94AB1320E030E040E251E40E9462
:101CE000AB130E94EC12882777FD8095982F0E94F5
:101CF0001F130E94EC129B0183E06132780710F001
:101D000020E233E0C90108952F923F924F925F92F3
:101D10006F927F928F929F92AF92BF92CF92DF92FB
:101D2000EF92FF920F931F93CF93DF938CEA92E091
:101D30000E94D20F2CE6E22E2DE0F22ECC24DD24E0
:101D400095EC292E92E0392E8EEC482E82E0582E0A
:101D500007ED602E02E0702E19EE812E12E0912E1A
:101D6000B9EFAB2EB2E0BB2E00D00F9289EB92E020
:101D7000EDB7FEB792838183D482C3820E94BD0FE8
:101D8000EDB7FEB732822182F70180819181EDB7F4
:101D9000FEB7948383830E94BD0FEDB7FEB75282D6
:101DA0004182F70182819381EDB7FEB794838383EB
:101DB0000E94BD0FEDB7FEB772826182F701848188
:101DC0009581EDB7FEB7948383830E94BD0F0F907A
:101DD0000F90EDB7FEB7928281820E94BD0FC601BF
:101DE000880F991FEC01F3E0CC0FDD1FFA95E1F7A6
:101DF000C80FD91FCE58D24F00E010E00F900F90BF
:101E000012C000D00F92EDB7FEB7B282A1828991C5
:101E10009991948383830E94BD0F0F5F1F4F0F9092
:101E20000F900F900F90F701848195810817190783
:101E300044F38DEF92E00E94D20F0894C11CD11C94
:101E400082E190E0E80EF91E91E3C916D10409F091
:101E50008BCF8FEF92E00E94D20FC7E7D6E000E071
:101E600010E0ECE02E2EE3E03E2E79E1472E73E009
:101E7000572E64E2662E63E0762E54E3852E53E0FF
:101E8000952E49E4A42E43E0B42E31E6C32E33E070
:101E9000D32E2AE7E22E23E0F22E00D00F9289EB18
:101EA00092E0EDB7FEB792838183148303830E948F
:101EB000BD0FEDB7FEB7328221828881998194836C
:101EC00083830E94BD0FEDB7FEB7528241828A81A3
:101ED0009B81948383830E94BD0FEDB7FEB772820E
:101EE00061828C819D81948383830E94BD0FEDB7B5
:101EF000FEB7928281828E819F81948383830E9428
:101F0000BD0FEDB7FEB7B282A18288859985948313
:101F100083830E94BD0FEDB7FEB7D282C1828A854E
:101F20009B85948383830E94BD0FEDB7FEB7F28239
:101F3000E1828C859D85948383830E94BD0F0F5F12
:101F40001F4F2E960F900F900F900F900F3311058B
:101F500009F0A3CFDF91CF911F910F91FF90EF90E8
:101F6000DF90CF90BF90AF909F908F907F906F90B9
:101F70005F904F903F902F900895A0E0B0E0E3EC89
:101F8000FFE00C940F16FE013696619171918091DD
:101F90005A1490915B14AF010E9407102096E2E062
:101FA0000C942B160F931F93CF93DF938C01E0912A
:101FB0005A14F0915B14838181FF21C0C0E0D0E00E
:101FC0000DC0E0915A14F0915B1420853185BF015A
:101FD000F9011995892B11F0CFEFDFEFF80181910D
:101FE0008F01882371F7E0915A14F0915B142085DA
:101FF00031858AE0BF01F9011995892B11F0CFEFE6
:10200000DFEFCE01DF91CF911F910F910895ABE0EB
:10201000B0E0EDE0F0E10C94FF153C012B015A011A
:10202000FC0117821682838181FD03C06FEF7FEF71
:10203000C6C19AE0892E1E010894211C311CF301AF
:102040002381F20123FD859123FF81912F018823B4
:1020500009F4B2C1853239F423FD859123FF8191C2
:102060002F01853229F490E0B3010E94FA11E7CFE5
:10207000982FFF24EE249924FFE1FF15D0F09B3226
:1020800069F09C3228F4903259F0933291F40EC0EA
:102090009D3249F0903369F441E024C052E0F52AC2
:1020A00084E0F82A28C098E0F92A25C0E0E1FE2A59
:1020B00022C0F7FC29C0892F80538A3070F4F6FEC5
:1020C00005C0989C902C1124980E15C0E89CE02C1B
:1020D0001124E80EF0E2FF2A0EC09E3229F4F6FC2D
:1020E0006BC140E4F42A07C09C3619F450E8F52A85
:1020F00002C0983649F4F20123FD959123FF919196
:102100002F01992309F0B8CF892F8554833018F017
:102110008052833038F444E050E0A40EB51E5FE3F3
:1021200059830FC0933631F0933779F0933509F026
:1021300056C020C0F5018081898342E050E0A40EA2
:10214000B51E610101E010E012C0F501C080D18030
:10215000F6FC03C06FEF7FEF02C0692D70E042E034
:1021600050E0A40EB51EC6010E94EF118C015FE77E
:10217000F52214C0F501C080D180F6FC03C06FEFDA
:102180007FEF02C0692D70E042E050E0A40EB51E62
:10219000C6010E94E4118C0150E8F52AF3FE07C045
:1021A0001AC080E290E0B3010E94FA11EA948E2DE9
:1021B00090E008171907A8F30EC0F601F7FC859107
:1021C000F7FE81916F0190E0B3010E94FA11E110D6
:1021D000EA94015010400115110579F7EAC09436D0
:1021E00011F0993669F5F7FE08C0F50120813181BB
:1021F0004281538184E090E00AC0F50180819181A1
:102200009C01442737FD4095542F82E090E0A80EB2
:10221000B91E9FE6F92257FF09C0509540953095A9
:1022200021953F4F4F4F5F4FE0E8FE2ACA01B901A9
:10223000A1012AE030E00E942612D82ED21840C018
:10224000953729F41F2D1F7E2AE030E01DC01F2D79
:10225000197F9F3661F0903720F4983509F0ACC0B3
:102260000FC0903739F0983709F0A6C004C028E0B5
:1022700030E00AC0106114FD146020E130E004C0B9
:1022800014FD166020E132E017FF08C0F5016081FF
:1022900071818281938144E050E008C0F501808122
:1022A0009181BC0180E090E042E050E0A40EB51EB8
:1022B000A1010E942612D82ED2188FE7F82EF12203
:1022C000F6FE0BC05EEFF522D91438F4F4FE07C019
:1022D000F2FC05C08FEEF82202C01D2D01C0192DA1
:1022E000F4FE0DC0FE01ED0DF11D8081803319F467
:1022F00099EEF92208C01F5FF2FE05C003C08F2DC2
:10230000867809F01F5F0F2DF3FC14C0F0FE0FC09C
:102310001E1510F09D2C0BC09D2C9E0C911A1E2D8D
:1023200006C080E290E0B3010E94FA111F5F1E1503
:10233000C0F304C01E1510F4E11A01C0EE2404FF1E
:102340000FC080E390E0B3010E94FA1102FF1DC0AC
:1023500001FD03C088E790E00EC088E590E00BC067
:10236000802F867891F001FF02C08BE201C080E2ED
:10237000F7FC8DE290E0B3010E94FA1106C080E301
:1023800090E0B3010E94FA119A94D914C0F3DA9440
:10239000F101ED0DF11D808190E0B3010E94FA1171
:1023A000DD20A9F706C080E290E0B3010E94FA1197
:1023B000EA94EE20C1F743CEF30166817781CB0129
:1023C0002B96E2E10C941B16FC01059061507040C5
:1023D0000110D8F7809590958E0F9F1F0895FC01EE
:1023E0006150704001900110D8F7809590958E0F44
:1023F0009F1F08950F931F93CF93DF938C01EB01E1
:102400008B8181FF1BC082FF0DC02E813F818C819B
:102410009D812817390764F4E881F9810193F983D4
:10242000E88306C0E885F985802F1995892B31F45A
:102430008E819F8101969F838E8302C00FEF1FEFD5
:10244000C801DF91CF911F910F910895FA01AA273A
:10245000283051F1203181F1E8946F936E7F6E5FE7
:102460007F4F8F4F9F4FAF4FB1E03ED0B4E03CD095
:10247000670F781F891F9A1FA11D680F791F8A1F78
:10248000911DA11D6A0F711D811D911DA11D20D0DF
:1024900009F468943F912AE0269F11243019305D99
:1024A0003193DEF6CF010895462F4770405D41938A
:1024B000B3E00FD0C9F7F6CF462F4F70405D4A33D7
:1024C00018F0495D31FD4052419302D0A9F7EACF9F
:1024D000B4E0A6959795879577956795BA95C9F7CE
:1024E00000976105710508959B01AC010A2E0694C1
:1024F0005795479537952795BA95C9F7620F731F7A
:10250000841F951FA01D08950CD0EBC0E3D040F0B0
:10251000DAD030F021F45F3F19F0CCC0511115C171
:10252000CFC0F0D098F39923C9F35523B1F3951B8D
:10253000550BBB27AA2762177307840738F09F5FE4
:102540005F4F220F331F441FAA1FA9F333D00E2E53
:102550003AF0E0E830D091505040E695001CCAF7C0
:1025600029D0FE2F27D0660F771F881FBB1F261785
:1025700037074807AB07B0E809F0BB0B802DBF0158
:10258000FF2793585F4F2AF09E3F510568F092C095
:10259000DCC05F3FECF3983EDCF38695779567955A
:1025A000B795F7959F5FC9F7880F911D9695879509
:1025B00097F90895E1E0660F771F881FBB1F621728
:1025C00073078407BA0720F0621B730B840BBA0BE6
:1025D000EE1F88F7E095089504D06894B111B5C056
:1025E000089598D088F09F5790F0B92F9927B75148
:1025F000A0F0D1F0660F771F881F991F1AF0BA95C7
:10260000C9F712C0B13081F09FD0B1E008959CC0ED
:10261000672F782F8827B85F39F0B93FCCF38695BC
:1026200077956795B395D9F73EF490958095709519
:1026300061957F4F8F4F9F4F0895E89409C097FB96
:102640003EF490958095709561957F4F8F4F9F4F89
:102650009923A9F0F92F96E9BB279395F6958795CD
:1026600077956795B795F111F8CFFAF4BB0F11F490
:1026700060FF1BC06F5F7F4F8F4F9F4F16C0882337
:1026800011F096E911C0772321F09EE8872F762F6D
:1026900005C0662371F096E8862F70E060E02AF0AE
:1026A0009A95660F771F881FDAF7880F969587959A
:1026B00097F9089597F99F6780E870E060E00895C2
:1026C0009FEF80EC089500240A941616170618064A
:1026D0000906089500240A94121613061406050626
:1026E0000895092E0394000C11F4882352F0BB0FB7
:1026F00040F4BF2B11F460FF04C06F5F7F4F8F4F1A
:102700009F4F089557FD9058440F551F59F05F3F54
:1027100071F04795880F97FB991F61F09F3F79F003
:1027200087950895121613061406551FF2CF469585
:10273000F1DF08C0161617061806991FF1CF869507
:102740007105610508940895E894BB2766277727EB
:10275000CB0197F908950BD0C4CFB5DF28F0BADFCD
:1027600018F0952309F0A6CFABCF1124EECFCADF26
:10277000A0F3959FD1F3950F50E0551F629FF00194
:10278000729FBB27F00DB11D639FAA27F00DB11DED
:10279000AA1F649F6627B00DA11D661F829F222776
:1027A000B00DA11D621F739FB00DA11D621F839FFD
:1027B000A00D611D221F749F3327A00D611D231FD3
:1027C000849F600D211D822F762F6A2F11249F5721
:1027D00050408AF0E1F088234AF0EE0FFF1FBB1F44
:1027E000661F771F881F91505040A9F79E3F5105E3
:1027F00070F060CFAACF5F3FECF3983EDCF3869594
:1028000077956795B795F795E7959F5FC1F7FE2B8D
:10281000880F911D9695879597F90895FA01EE0F07
:10282000FF1F30962105310599F16115710561F49D
:102830008038BFE39B0749F168949038810561F0C7
:102840008038BFEF9B0741F0992342F5FF3FE10538
:102850003105210511F1E8940894E795D901AA23DF
:1028600029F4AB2FBE2FF85FD0F310C0FF5F70F4D8
:10287000A695E0F7F73950F019F0FF3A38F49F7752
:102880009F930CD00F9007FC905808953EF018CFFE
:1028900060E070E080E89FE308954FE79F775F93E3
:1028A0004F933F932F939ED02F913F914F915F91E4
:1028B00052DF05C019F40EF0FDCE46CF01CF2ADF5E
:1028C000C8F39638C0F707F80F92E8942BE33AEA7A
:1028D00048EB5FE74EDF0F920F920F924DB75EB756
:1028E0000F92C0D0E4EEF0E016D04F915F91EF91DF
:1028F000FF91E595EE1FFF1F49F0FE57E068442762
:10290000EE0F441FFA95E1F74195550B32D00F9029
:1029100007FE26C00895DF93CF931F930F93FF9276
:10292000EF92DF927B018C01689405C0DA2EEF01F3
:102930001EDFFE01E894A5912591359145915591B1
:10294000AEF3EF01D4D0FE019701A801DA9479F734
:10295000DF90EF90FF900F911F91CF91DF9108953D
:102960009B01AC0160E070E080E89FE3CDCDA2CE9A
:1029700011C1D0DEE8F39923D9F3940F511DBBF3B5
:102980009150504094F059F0882332F0660F771F31
:10299000881F91505040C1F79E3F510544F7880F62
:1029A000911D9695879597F908955F3FACF0983EF5
:1029B0009CF0BB27869577956795B79508F4B1602D
:1029C0009395C1F7BB0F58F711F460FFE8CF6F5F25
:1029D0007F4F8F4F9F4FE3CFB8CE0EF0DBC070CE4E
:1029E000689468CE97DEC8F39923D1F3C6F3DF93DA
:1029F000CF931F930F93FF92C92FDD2788232AF0CF
:102A00002197660F771F881FDAF720E030E040E853
:102A10005FEB9FE3883920F0803E30F021968F777E
:102A200055D0ECE0F1E003C051D0E9E3F1E073DF11
:102A30008B01BE01EC01FB2E6F5771097595771F55
:102A4000880B990BFCDD28E132E741E35FE38FDE81
:102A5000AF2D9801AE01FF900F911F91CF91DF91A3
:102A600046D03FCEFA01DC01AA0FBB1F9B01AC018F
:102A7000BF5728F422273327442750781FC0B75167
:102A800088F4AB2F0024469537952795011CA39514
:102A9000D2F3002069F0220F331F441FB395DAF3FD
:102AA0000DD013C061307105A0E88A07B94630F433
:102AB0009B01AC016627772788279078309621F014
:102AC000208331834283538308955058BB27AA271C
:102AD0000ED007CEF8DD30F0FDDD20F031F49F3F61
:102AE00011F41EF4EDCD0EF4E095E7FBE3CDE92FF4
:102AF00009DE80F3BA17620773078407950718F099
:102B000071F49EF521CE0EF4E0950B2EBA2FA02D78
:102B10000B01B90190010C01CA01A0011124FF278A
:102B2000591B99F0593F50F4503E68F11A16F04085
:102B3000A22F232F342F4427585FF3CF4695379584
:102B40002795A795F0405395C9F77EF41F16BA0B49
:102B5000620B730B840BBAF09150A1F0FF0FBB1FF7
:102B6000661F771F881FC2F70EC0BA0F621F731F40
:102B7000841F48F4879577956795B795F7959E3F9D
:102B800008F0B3CF9395880F08F09927EE0F97952B
:102B9000879508959F3F31F0915020F48795779560
:102BA0006795B795880F911D9695879597F9089524
:102BB000AA1BBB1B51E107C0AA1FBB1FA617B70763
:102BC00010F0A61BB70B881F991F5A95A9F780957F
:102BD0009095BC01CD01089597FB092E07260AD0D8
:102BE00077FD04D0E5DF06D000201AF470956195DA
:102BF0007F4F0895F6F7909581959F4F08952F92F6
:102C00003F924F925F926F927F928F929F92AF927C
:102C1000BF92CF92DF92EF92FF920F931F93CF93C9
:102C2000DF93CDB7DEB7CA1BDB0B0FB6F894DEBF60
:102C30000FBECDBF19942A88398848885F846E8476
:102C40007D848C849B84AA84B984C884DF80EE80D0
:102C5000FD800C811B81AA81B981CE0FD11D0FB6D9
:102C6000F894DEBF0FBECDBFED010895F894FFCFFD
:102C7000256320476F696E672066726F6D2025643B
:102C800020746F2025640A00256320426F7420732E
:102C9000746F707065642C20726561736F6E3A207A
:102CA00025730A00426F7420256320737461727467
:102CB00065640A00416464696E67206E6F74652004
:102CC00025640A00426F7420412064697374616E48
:102CD0006365203D2025640A00426F742042206411
:102CE000697374616E6365203D2025640A00436F3B
:102CF0006C6C6973696F6E004220706C61796564F9
:102D00002025640A00436F6D706C65746564004132
:102D100020706C617965642025640A004E6F6465DB
:102D2000732061727261793A0009496E6465782096
:102D300025643A0A000909783A2025640A0009093D
:102D4000793A2025640A0009096564676520436FA4
:102D5000756E743A2025640A000909656467652068
:102D6000496E64696365733A00202564000A004572
:102D7000646765732061727261793A00090953745E
:102D80006172743A2025640A000909456E643A208C
:102D900025640A0009094F62737461636C653A2007
:102DA00025640A000909537461727420436F6D70C1
:102DB0006173733A2025640A0009094C6566742022
:102DC000537065656420526174696F3A2025640A06
:102DD0000009095269676874205370656564205260
:102DE0006174696F3A2025640A00090944697374A3
:102DF000616E63653A2025640A0A00140010001E03
:102E0000000D00180012001D001A00080006000A3C
:102E10000014001500130015001400140014001411
:102E20000015001500140014001400130015001202
:102E300000140015001400150015001400140012F1
:102E400000160015001500160015001500150017D6
:102E500000150017001600170017001500170018BE
:102E600000180016001600160017001800160016AD
:102E700000150017001700150016001600140016A4
:102E80000017001600190016002D002D002C00520E
:102E900000610043003400250016000700F9FFEA36
:102EA000FFDBFFCCFFBDFFAEFF9FFF90FF81FF72F6
:102EB000FF63FF54FFAC009D008E007F007000C4D4
:102EC000FFC4FF88FF88FF3C000000C4FF88FFB4F8
:102ED0000000003C0088FFC4FFC4FF00000000C4E5
:102EE000FF88FFB40078003C0088FFC4FFC4FF00E7
:102EF00000B4003C0088FF7800B40088FFC4FF00E5
:102F0000007800B400B400C4FF000088FF00000196
:102F1000001700000001000200020003000300048B
:102F20000004000500050006000600070007000871
:102F3000000800090009000A000A000B000B000C41
:102F4000000C000D000D000E000E000F000F001011
:102F500000100011001100120012001300130014E1
:102F600000140015001500160016001700020018C6
:102F7000001800190019001A001A00160018001B8A
:102F8000001B001C001C001D001D001E001E00195F
:102F90000002001B001F0006001F001C000600228C
:102FA00000220021002100200020000A0020002330
:102FB00000230024002400250025002600260021EF
:102FC000000A0023002400270027000E002A000E1C
:102FD000002A002900280029002800120029002EBC
:102FE000002E002D002D002C002C002B002B002883
:102FF0000012002B002C002F002F00160019002CAF
:10300000001C00210024002900390013013F00DBCF
:10301000005400A90075007900A4005900D80041AF
:10302000000F013B0048013F007D015800AA017DCF
:1030300000CF01A800E001DD00E9011401E0014A30
:1030400001CA018001A901A9017D01CA014801E469
:10305000011101E901D600E501A100CD017400AC28
:103060000153007E013F004D017400DF0092001605
:1030700001720049019300A700D100A700F100D917
:1030800000CE001001F00070008D01A4004D01A6DB
:10309000002E017300AD01E1008D011501500114F6
:1030A000013001DF00AE0149013101B7014E017E5F
:1030B000018E018201F100B501D6007E01F0004DC4
:0E30C000012E01480191007E010F0113010055
:00000001FF
